{
  "contracts/OnChainMessengerV5.sol": {
    "OnChainMessengerV5": {
      "abi": [
        {
          "anonymous": false,
          "inputs": [
            {
              "indexed": false,
              "internalType": "address",
              "name": "sender",
              "type": "address"
            }
          ],
          "name": "Error",
          "type": "event"
        },
        {
          "anonymous": false,
          "inputs": [
            {
              "indexed": true,
              "internalType": "address",
              "name": "previousOwner",
              "type": "address"
            },
            {
              "indexed": true,
              "internalType": "address",
              "name": "newOwner",
              "type": "address"
            }
          ],
          "name": "OwnershipTransferred",
          "type": "event"
        },
        {
          "anonymous": false,
          "inputs": [
            {
              "indexed": false,
              "internalType": "address",
              "name": "account",
              "type": "address"
            }
          ],
          "name": "Paused",
          "type": "event"
        },
        {
          "anonymous": false,
          "inputs": [
            {
              "indexed": false,
              "internalType": "address",
              "name": "account",
              "type": "address"
            }
          ],
          "name": "Unpaused",
          "type": "event"
        },
        {
          "inputs": [],
          "name": "anotherBool",
          "outputs": [
            {
              "internalType": "bool",
              "name": "",
              "type": "bool"
            }
          ],
          "stateMutability": "view",
          "type": "function"
        },
        {
          "inputs": [
            {
              "internalType": "bool",
              "name": "_newBool",
              "type": "bool"
            }
          ],
          "name": "changeBool",
          "outputs": [],
          "stateMutability": "nonpayable",
          "type": "function"
        },
        {
          "inputs": [
            {
              "internalType": "address",
              "name": "",
              "type": "address"
            }
          ],
          "name": "messages",
          "outputs": [
            {
              "internalType": "address",
              "name": "sender",
              "type": "address"
            },
            {
              "internalType": "string",
              "name": "content",
              "type": "string"
            }
          ],
          "stateMutability": "view",
          "type": "function"
        },
        {
          "inputs": [],
          "name": "owner",
          "outputs": [
            {
              "internalType": "address",
              "name": "",
              "type": "address"
            }
          ],
          "stateMutability": "view",
          "type": "function"
        },
        {
          "inputs": [],
          "name": "pause",
          "outputs": [],
          "stateMutability": "nonpayable",
          "type": "function"
        },
        {
          "inputs": [],
          "name": "paused",
          "outputs": [
            {
              "internalType": "bool",
              "name": "",
              "type": "bool"
            }
          ],
          "stateMutability": "view",
          "type": "function"
        },
        {
          "inputs": [],
          "name": "renounceOwnership",
          "outputs": [],
          "stateMutability": "nonpayable",
          "type": "function"
        },
        {
          "inputs": [
            {
              "internalType": "address",
              "name": "recipient",
              "type": "address"
            },
            {
              "internalType": "string",
              "name": "message",
              "type": "string"
            }
          ],
          "name": "sendMessage",
          "outputs": [],
          "stateMutability": "nonpayable",
          "type": "function"
        },
        {
          "inputs": [],
          "name": "someBool",
          "outputs": [
            {
              "internalType": "bool",
              "name": "",
              "type": "bool"
            }
          ],
          "stateMutability": "view",
          "type": "function"
        },
        {
          "inputs": [],
          "name": "someMapping",
          "outputs": [
            {
              "internalType": "bool",
              "name": "",
              "type": "bool"
            }
          ],
          "stateMutability": "view",
          "type": "function"
        },
        {
          "inputs": [],
          "name": "throwError",
          "outputs": [],
          "stateMutability": "nonpayable",
          "type": "function"
        },
        {
          "inputs": [
            {
              "internalType": "address",
              "name": "newOwner",
              "type": "address"
            }
          ],
          "name": "transferOwnership",
          "outputs": [],
          "stateMutability": "nonpayable",
          "type": "function"
        },
        {
          "inputs": [],
          "name": "unpause",
          "outputs": [],
          "stateMutability": "nonpayable",
          "type": "function"
        }
      ],
      "evm": {
        "bytecode": {
          "linkReferences": {},
          "object": "608060405234801561001057600080fd5b5060008060006101000a81548160ff02191690831515021790555061004761003c61004c60201b60201c565b61005460201b60201c565b610119565b600033905090565b60008060019054906101000a900473ffffffffffffffffffffffffffffffffffffffff16905081600060016101000a81548173ffffffffffffffffffffffffffffffffffffffff021916908373ffffffffffffffffffffffffffffffffffffffff1602179055508173ffffffffffffffffffffffffffffffffffffffff168173ffffffffffffffffffffffffffffffffffffffff167f8be0079c531659141344cd1fd0a4f28419497f9722a3daafe3b4186f6b6457e060405160405180910390a35050565b61102a806101286000396000f3fe608060405234801561001057600080fd5b50600436106100cf5760003560e01c8063715018a61161008c578063c2779c8611610066578063c2779c86146101a3578063de6f24bb146101c1578063e4d12eeb146101dd578063f2fde38b146101fb576100cf565b8063715018a6146101715780638456cb591461017b5780638da5cb5b14610185576100cf565b806312e59769146100d45780632f7643a8146100f25780633f4ba83a146100fc5780635c975abb146101065780635fdd59f8146101245780636d68977914610155575b600080fd5b6100dc610217565b6040516100e99190610a26565b60405180910390f35b6100fa61022a565b005b610104610263565b005b61010e6102e9565b60405161011b9190610a26565b60405180910390f35b61013e60048036038101906101399190610ab3565b6102ff565b60405161014c929190610b88565b60405180910390f35b61016f600480360381019061016a9190610be4565b6103cb565b005b6101796103e8565b005b610183610470565b005b61018d6104f6565b60405161019a9190610c11565b60405180910390f35b6101ab61051f565b6040516101b89190610a26565b60405180910390f35b6101db60048036038101906101d69190610d61565b610532565b005b6101e561064f565b6040516101f29190610a26565b60405180910390f35b61021560048036038101906102109190610ab3565b610660565b005b600260019054906101000a900460ff1681565b7f7ab3ca8d9c315e41f56f37c7e1fb65062a6c0c242c3c28ed0bf47db6be2b10ea336040516102599190610c11565b60405180910390a1565b61026b610758565b73ffffffffffffffffffffffffffffffffffffffff166102896104f6565b73ffffffffffffffffffffffffffffffffffffffff16146102df576040517f08c379a00000000000000000000000000000000000000000000000000000000081526004016102d690610e09565b60405180910390fd5b6102e7610760565b565b60008060009054906101000a900460ff16905090565b60016020528060005260406000206000915090508060000160009054906101000a900473ffffffffffffffffffffffffffffffffffffffff169080600101805461034890610e58565b80601f016020809104026020016040519081016040528092919081815260200182805461037490610e58565b80156103c15780601f10610396576101008083540402835291602001916103c1565b820191906000526020600020905b8154815290600101906020018083116103a457829003601f168201915b5050505050905082565b80600260006101000a81548160ff02191690831515021790555050565b6103f0610758565b73ffffffffffffffffffffffffffffffffffffffff1661040e6104f6565b73ffffffffffffffffffffffffffffffffffffffff1614610464576040517f08c379a000000000000000000000000000000000000000000000000000000000815260040161045b90610e09565b60405180910390fd5b61046e6000610801565b565b610478610758565b73ffffffffffffffffffffffffffffffffffffffff166104966104f6565b73ffffffffffffffffffffffffffffffffffffffff16146104ec576040517f08c379a00000000000000000000000000000000000000000000000000000000081526004016104e390610e09565b60405180910390fd5b6104f46108c6565b565b60008060019054906101000a900473ffffffffffffffffffffffffffffffffffffffff16905090565b600260009054906101000a900460ff1681565b61053a6102e9565b1561057a576040517f08c379a000000000000000000000000000000000000000000000000000000000815260040161057190610ed6565b60405180910390fd5b60405180604001604052803373ffffffffffffffffffffffffffffffffffffffff16815260200182815250600160008473ffffffffffffffffffffffffffffffffffffffff1673ffffffffffffffffffffffffffffffffffffffff16815260200190815260200160002060008201518160000160006101000a81548173ffffffffffffffffffffffffffffffffffffffff021916908373ffffffffffffffffffffffffffffffffffffffff1602179055506020820151816001019080519060200190610647929190610968565b509050505050565b60028054906101000a900460ff1681565b610668610758565b73ffffffffffffffffffffffffffffffffffffffff166106866104f6565b73ffffffffffffffffffffffffffffffffffffffff16146106dc576040517f08c379a00000000000000000000000000000000000000000000000000000000081526004016106d390610e09565b60405180910390fd5b600073ffffffffffffffffffffffffffffffffffffffff168173ffffffffffffffffffffffffffffffffffffffff16141561074c576040517f08c379a000000000000000000000000000000000000000000000000000000000815260040161074390610f68565b60405180910390fd5b61075581610801565b50565b600033905090565b6107686102e9565b6107a7576040517f08c379a000000000000000000000000000000000000000000000000000000000815260040161079e90610fd4565b60405180910390fd5b60008060006101000a81548160ff0219169083151502179055507f5db9ee0a495bf2e6ff9c91a7834c1ba4fdd244a5e8aa4e537bd38aeae4b073aa6107ea610758565b6040516107f79190610c11565b60405180910390a1565b60008060019054906101000a900473ffffffffffffffffffffffffffffffffffffffff16905081600060016101000a81548173ffffffffffffffffffffffffffffffffffffffff021916908373ffffffffffffffffffffffffffffffffffffffff1602179055508173ffffffffffffffffffffffffffffffffffffffff168173ffffffffffffffffffffffffffffffffffffffff167f8be0079c531659141344cd1fd0a4f28419497f9722a3daafe3b4186f6b6457e060405160405180910390a35050565b6108ce6102e9565b1561090e576040517f08c379a000000000000000000000000000000000000000000000000000000000815260040161090590610ed6565b60405180910390fd5b60016000806101000a81548160ff0219169083151502179055507f62e78cea01bee320cd4e420270b5ea74000d11b0c9f74754ebdbfc544b05a258610951610758565b60405161095e9190610c11565b60405180910390a1565b82805461097490610e58565b90600052602060002090601f01602090048101928261099657600085556109dd565b82601f106109af57805160ff19168380011785556109dd565b828001600101855582156109dd579182015b828111156109dc5782518255916020019190600101906109c1565b5b5090506109ea91906109ee565b5090565b5b80821115610a075760008160009055506001016109ef565b5090565b60008115159050919050565b610a2081610a0b565b82525050565b6000602082019050610a3b6000830184610a17565b92915050565b6000604051905090565b600080fd5b600080fd5b600073ffffffffffffffffffffffffffffffffffffffff82169050919050565b6000610a8082610a55565b9050919050565b610a9081610a75565b8114610a9b57600080fd5b50565b600081359050610aad81610a87565b92915050565b600060208284031215610ac957610ac8610a4b565b5b6000610ad784828501610a9e565b91505092915050565b610ae981610a75565b82525050565b600081519050919050565b600082825260208201905092915050565b60005b83811015610b29578082015181840152602081019050610b0e565b83811115610b38576000848401525b50505050565b6000601f19601f8301169050919050565b6000610b5a82610aef565b610b648185610afa565b9350610b74818560208601610b0b565b610b7d81610b3e565b840191505092915050565b6000604082019050610b9d6000830185610ae0565b8181036020830152610baf8184610b4f565b90509392505050565b610bc181610a0b565b8114610bcc57600080fd5b50565b600081359050610bde81610bb8565b92915050565b600060208284031215610bfa57610bf9610a4b565b5b6000610c0884828501610bcf565b91505092915050565b6000602082019050610c266000830184610ae0565b92915050565b600080fd5b600080fd5b7f4e487b7100000000000000000000000000000000000000000000000000000000600052604160045260246000fd5b610c6e82610b3e565b810181811067ffffffffffffffff82111715610c8d57610c8c610c36565b5b80604052505050565b6000610ca0610a41565b9050610cac8282610c65565b919050565b600067ffffffffffffffff821115610ccc57610ccb610c36565b5b610cd582610b3e565b9050602081019050919050565b82818337600083830152505050565b6000610d04610cff84610cb1565b610c96565b905082815260208101848484011115610d2057610d1f610c31565b5b610d2b848285610ce2565b509392505050565b600082601f830112610d4857610d47610c2c565b5b8135610d58848260208601610cf1565b91505092915050565b60008060408385031215610d7857610d77610a4b565b5b6000610d8685828601610a9e565b925050602083013567ffffffffffffffff811115610da757610da6610a50565b5b610db385828601610d33565b9150509250929050565b7f4f776e61626c653a2063616c6c6572206973206e6f7420746865206f776e6572600082015250565b6000610df3602083610afa565b9150610dfe82610dbd565b602082019050919050565b60006020820190508181036000830152610e2281610de6565b9050919050565b7f4e487b7100000000000000000000000000000000000000000000000000000000600052602260045260246000fd5b60006002820490506001821680610e7057607f821691505b60208210811415610e8457610e83610e29565b5b50919050565b7f5061757361626c653a2070617573656400000000000000000000000000000000600082015250565b6000610ec0601083610afa565b9150610ecb82610e8a565b602082019050919050565b60006020820190508181036000830152610eef81610eb3565b9050919050565b7f4f776e61626c653a206e6577206f776e657220697320746865207a65726f206160008201527f6464726573730000000000000000000000000000000000000000000000000000602082015250565b6000610f52602683610afa565b9150610f5d82610ef6565b604082019050919050565b60006020820190508181036000830152610f8181610f45565b9050919050565b7f5061757361626c653a206e6f7420706175736564000000000000000000000000600082015250565b6000610fbe601483610afa565b9150610fc982610f88565b602082019050919050565b60006020820190508181036000830152610fed81610fb1565b905091905056fea26469706673582212208d3db5e4ba5662245fcd7629c8d3ec68fe3bcbce9d248560cfbff4b7f46bc47e64736f6c634300080a0033",
          "opcodes": "PUSH1 0x80 PUSH1 0x40 MSTORE CALLVALUE DUP1 ISZERO PUSH2 0x10 JUMPI PUSH1 0x0 DUP1 REVERT JUMPDEST POP PUSH1 0x0 DUP1 PUSH1 0x0 PUSH2 0x100 EXP DUP2 SLOAD DUP2 PUSH1 0xFF MUL NOT AND SWAP1 DUP4 ISZERO ISZERO MUL OR SWAP1 SSTORE POP PUSH2 0x47 PUSH2 0x3C PUSH2 0x4C PUSH1 0x20 SHL PUSH1 0x20 SHR JUMP JUMPDEST PUSH2 0x54 PUSH1 0x20 SHL PUSH1 0x20 SHR JUMP JUMPDEST PUSH2 0x119 JUMP JUMPDEST PUSH1 0x0 CALLER SWAP1 POP SWAP1 JUMP JUMPDEST PUSH1 0x0 DUP1 PUSH1 0x1 SWAP1 SLOAD SWAP1 PUSH2 0x100 EXP SWAP1 DIV PUSH20 0xFFFFFFFFFFFFFFFFFFFFFFFFFFFFFFFFFFFFFFFF AND SWAP1 POP DUP2 PUSH1 0x0 PUSH1 0x1 PUSH2 0x100 EXP DUP2 SLOAD DUP2 PUSH20 0xFFFFFFFFFFFFFFFFFFFFFFFFFFFFFFFFFFFFFFFF MUL NOT AND SWAP1 DUP4 PUSH20 0xFFFFFFFFFFFFFFFFFFFFFFFFFFFFFFFFFFFFFFFF AND MUL OR SWAP1 SSTORE POP DUP2 PUSH20 0xFFFFFFFFFFFFFFFFFFFFFFFFFFFFFFFFFFFFFFFF AND DUP2 PUSH20 0xFFFFFFFFFFFFFFFFFFFFFFFFFFFFFFFFFFFFFFFF AND PUSH32 0x8BE0079C531659141344CD1FD0A4F28419497F9722A3DAAFE3B4186F6B6457E0 PUSH1 0x40 MLOAD PUSH1 0x40 MLOAD DUP1 SWAP2 SUB SWAP1 LOG3 POP POP JUMP JUMPDEST PUSH2 0x102A DUP1 PUSH2 0x128 PUSH1 0x0 CODECOPY PUSH1 0x0 RETURN INVALID PUSH1 0x80 PUSH1 0x40 MSTORE CALLVALUE DUP1 ISZERO PUSH2 0x10 JUMPI PUSH1 0x0 DUP1 REVERT JUMPDEST POP PUSH1 0x4 CALLDATASIZE LT PUSH2 0xCF JUMPI PUSH1 0x0 CALLDATALOAD PUSH1 0xE0 SHR DUP1 PUSH4 0x715018A6 GT PUSH2 0x8C JUMPI DUP1 PUSH4 0xC2779C86 GT PUSH2 0x66 JUMPI DUP1 PUSH4 0xC2779C86 EQ PUSH2 0x1A3 JUMPI DUP1 PUSH4 0xDE6F24BB EQ PUSH2 0x1C1 JUMPI DUP1 PUSH4 0xE4D12EEB EQ PUSH2 0x1DD JUMPI DUP1 PUSH4 0xF2FDE38B EQ PUSH2 0x1FB JUMPI PUSH2 0xCF JUMP JUMPDEST DUP1 PUSH4 0x715018A6 EQ PUSH2 0x171 JUMPI DUP1 PUSH4 0x8456CB59 EQ PUSH2 0x17B JUMPI DUP1 PUSH4 0x8DA5CB5B EQ PUSH2 0x185 JUMPI PUSH2 0xCF JUMP JUMPDEST DUP1 PUSH4 0x12E59769 EQ PUSH2 0xD4 JUMPI DUP1 PUSH4 0x2F7643A8 EQ PUSH2 0xF2 JUMPI DUP1 PUSH4 0x3F4BA83A EQ PUSH2 0xFC JUMPI DUP1 PUSH4 0x5C975ABB EQ PUSH2 0x106 JUMPI DUP1 PUSH4 0x5FDD59F8 EQ PUSH2 0x124 JUMPI DUP1 PUSH4 0x6D689779 EQ PUSH2 0x155 JUMPI JUMPDEST PUSH1 0x0 DUP1 REVERT JUMPDEST PUSH2 0xDC PUSH2 0x217 JUMP JUMPDEST PUSH1 0x40 MLOAD PUSH2 0xE9 SWAP2 SWAP1 PUSH2 0xA26 JUMP JUMPDEST PUSH1 0x40 MLOAD DUP1 SWAP2 SUB SWAP1 RETURN JUMPDEST PUSH2 0xFA PUSH2 0x22A JUMP JUMPDEST STOP JUMPDEST PUSH2 0x104 PUSH2 0x263 JUMP JUMPDEST STOP JUMPDEST PUSH2 0x10E PUSH2 0x2E9 JUMP JUMPDEST PUSH1 0x40 MLOAD PUSH2 0x11B SWAP2 SWAP1 PUSH2 0xA26 JUMP JUMPDEST PUSH1 0x40 MLOAD DUP1 SWAP2 SUB SWAP1 RETURN JUMPDEST PUSH2 0x13E PUSH1 0x4 DUP1 CALLDATASIZE SUB DUP2 ADD SWAP1 PUSH2 0x139 SWAP2 SWAP1 PUSH2 0xAB3 JUMP JUMPDEST PUSH2 0x2FF JUMP JUMPDEST PUSH1 0x40 MLOAD PUSH2 0x14C SWAP3 SWAP2 SWAP1 PUSH2 0xB88 JUMP JUMPDEST PUSH1 0x40 MLOAD DUP1 SWAP2 SUB SWAP1 RETURN JUMPDEST PUSH2 0x16F PUSH1 0x4 DUP1 CALLDATASIZE SUB DUP2 ADD SWAP1 PUSH2 0x16A SWAP2 SWAP1 PUSH2 0xBE4 JUMP JUMPDEST PUSH2 0x3CB JUMP JUMPDEST STOP JUMPDEST PUSH2 0x179 PUSH2 0x3E8 JUMP JUMPDEST STOP JUMPDEST PUSH2 0x183 PUSH2 0x470 JUMP JUMPDEST STOP JUMPDEST PUSH2 0x18D PUSH2 0x4F6 JUMP JUMPDEST PUSH1 0x40 MLOAD PUSH2 0x19A SWAP2 SWAP1 PUSH2 0xC11 JUMP JUMPDEST PUSH1 0x40 MLOAD DUP1 SWAP2 SUB SWAP1 RETURN JUMPDEST PUSH2 0x1AB PUSH2 0x51F JUMP JUMPDEST PUSH1 0x40 MLOAD PUSH2 0x1B8 SWAP2 SWAP1 PUSH2 0xA26 JUMP JUMPDEST PUSH1 0x40 MLOAD DUP1 SWAP2 SUB SWAP1 RETURN JUMPDEST PUSH2 0x1DB PUSH1 0x4 DUP1 CALLDATASIZE SUB DUP2 ADD SWAP1 PUSH2 0x1D6 SWAP2 SWAP1 PUSH2 0xD61 JUMP JUMPDEST PUSH2 0x532 JUMP JUMPDEST STOP JUMPDEST PUSH2 0x1E5 PUSH2 0x64F JUMP JUMPDEST PUSH1 0x40 MLOAD PUSH2 0x1F2 SWAP2 SWAP1 PUSH2 0xA26 JUMP JUMPDEST PUSH1 0x40 MLOAD DUP1 SWAP2 SUB SWAP1 RETURN JUMPDEST PUSH2 0x215 PUSH1 0x4 DUP1 CALLDATASIZE SUB DUP2 ADD SWAP1 PUSH2 0x210 SWAP2 SWAP1 PUSH2 0xAB3 JUMP JUMPDEST PUSH2 0x660 JUMP JUMPDEST STOP JUMPDEST PUSH1 0x2 PUSH1 0x1 SWAP1 SLOAD SWAP1 PUSH2 0x100 EXP SWAP1 DIV PUSH1 0xFF AND DUP2 JUMP JUMPDEST PUSH32 0x7AB3CA8D9C315E41F56F37C7E1FB65062A6C0C242C3C28ED0BF47DB6BE2B10EA CALLER PUSH1 0x40 MLOAD PUSH2 0x259 SWAP2 SWAP1 PUSH2 0xC11 JUMP JUMPDEST PUSH1 0x40 MLOAD DUP1 SWAP2 SUB SWAP1 LOG1 JUMP JUMPDEST PUSH2 0x26B PUSH2 0x758 JUMP JUMPDEST PUSH20 0xFFFFFFFFFFFFFFFFFFFFFFFFFFFFFFFFFFFFFFFF AND PUSH2 0x289 PUSH2 0x4F6 JUMP JUMPDEST PUSH20 0xFFFFFFFFFFFFFFFFFFFFFFFFFFFFFFFFFFFFFFFF AND EQ PUSH2 0x2DF JUMPI PUSH1 0x40 MLOAD PUSH32 0x8C379A000000000000000000000000000000000000000000000000000000000 DUP2 MSTORE PUSH1 0x4 ADD PUSH2 0x2D6 SWAP1 PUSH2 0xE09 JUMP JUMPDEST PUSH1 0x40 MLOAD DUP1 SWAP2 SUB SWAP1 REVERT JUMPDEST PUSH2 0x2E7 PUSH2 0x760 JUMP JUMPDEST JUMP JUMPDEST PUSH1 0x0 DUP1 PUSH1 0x0 SWAP1 SLOAD SWAP1 PUSH2 0x100 EXP SWAP1 DIV PUSH1 0xFF AND SWAP1 POP SWAP1 JUMP JUMPDEST PUSH1 0x1 PUSH1 0x20 MSTORE DUP1 PUSH1 0x0 MSTORE PUSH1 0x40 PUSH1 0x0 KECCAK256 PUSH1 0x0 SWAP2 POP SWAP1 POP DUP1 PUSH1 0x0 ADD PUSH1 0x0 SWAP1 SLOAD SWAP1 PUSH2 0x100 EXP SWAP1 DIV PUSH20 0xFFFFFFFFFFFFFFFFFFFFFFFFFFFFFFFFFFFFFFFF AND SWAP1 DUP1 PUSH1 0x1 ADD DUP1 SLOAD PUSH2 0x348 SWAP1 PUSH2 0xE58 JUMP JUMPDEST DUP1 PUSH1 0x1F ADD PUSH1 0x20 DUP1 SWAP2 DIV MUL PUSH1 0x20 ADD PUSH1 0x40 MLOAD SWAP1 DUP2 ADD PUSH1 0x40 MSTORE DUP1 SWAP3 SWAP2 SWAP1 DUP2 DUP2 MSTORE PUSH1 0x20 ADD DUP3 DUP1 SLOAD PUSH2 0x374 SWAP1 PUSH2 0xE58 JUMP JUMPDEST DUP1 ISZERO PUSH2 0x3C1 JUMPI DUP1 PUSH1 0x1F LT PUSH2 0x396 JUMPI PUSH2 0x100 DUP1 DUP4 SLOAD DIV MUL DUP4 MSTORE SWAP2 PUSH1 0x20 ADD SWAP2 PUSH2 0x3C1 JUMP JUMPDEST DUP3 ADD SWAP2 SWAP1 PUSH1 0x0 MSTORE PUSH1 0x20 PUSH1 0x0 KECCAK256 SWAP1 JUMPDEST DUP2 SLOAD DUP2 MSTORE SWAP1 PUSH1 0x1 ADD SWAP1 PUSH1 0x20 ADD DUP1 DUP4 GT PUSH2 0x3A4 JUMPI DUP3 SWAP1 SUB PUSH1 0x1F AND DUP3 ADD SWAP2 JUMPDEST POP POP POP POP POP SWAP1 POP DUP3 JUMP JUMPDEST DUP1 PUSH1 0x2 PUSH1 0x0 PUSH2 0x100 EXP DUP2 SLOAD DUP2 PUSH1 0xFF MUL NOT AND SWAP1 DUP4 ISZERO ISZERO MUL OR SWAP1 SSTORE POP POP JUMP JUMPDEST PUSH2 0x3F0 PUSH2 0x758 JUMP JUMPDEST PUSH20 0xFFFFFFFFFFFFFFFFFFFFFFFFFFFFFFFFFFFFFFFF AND PUSH2 0x40E PUSH2 0x4F6 JUMP JUMPDEST PUSH20 0xFFFFFFFFFFFFFFFFFFFFFFFFFFFFFFFFFFFFFFFF AND EQ PUSH2 0x464 JUMPI PUSH1 0x40 MLOAD PUSH32 0x8C379A000000000000000000000000000000000000000000000000000000000 DUP2 MSTORE PUSH1 0x4 ADD PUSH2 0x45B SWAP1 PUSH2 0xE09 JUMP JUMPDEST PUSH1 0x40 MLOAD DUP1 SWAP2 SUB SWAP1 REVERT JUMPDEST PUSH2 0x46E PUSH1 0x0 PUSH2 0x801 JUMP JUMPDEST JUMP JUMPDEST PUSH2 0x478 PUSH2 0x758 JUMP JUMPDEST PUSH20 0xFFFFFFFFFFFFFFFFFFFFFFFFFFFFFFFFFFFFFFFF AND PUSH2 0x496 PUSH2 0x4F6 JUMP JUMPDEST PUSH20 0xFFFFFFFFFFFFFFFFFFFFFFFFFFFFFFFFFFFFFFFF AND EQ PUSH2 0x4EC JUMPI PUSH1 0x40 MLOAD PUSH32 0x8C379A000000000000000000000000000000000000000000000000000000000 DUP2 MSTORE PUSH1 0x4 ADD PUSH2 0x4E3 SWAP1 PUSH2 0xE09 JUMP JUMPDEST PUSH1 0x40 MLOAD DUP1 SWAP2 SUB SWAP1 REVERT JUMPDEST PUSH2 0x4F4 PUSH2 0x8C6 JUMP JUMPDEST JUMP JUMPDEST PUSH1 0x0 DUP1 PUSH1 0x1 SWAP1 SLOAD SWAP1 PUSH2 0x100 EXP SWAP1 DIV PUSH20 0xFFFFFFFFFFFFFFFFFFFFFFFFFFFFFFFFFFFFFFFF AND SWAP1 POP SWAP1 JUMP JUMPDEST PUSH1 0x2 PUSH1 0x0 SWAP1 SLOAD SWAP1 PUSH2 0x100 EXP SWAP1 DIV PUSH1 0xFF AND DUP2 JUMP JUMPDEST PUSH2 0x53A PUSH2 0x2E9 JUMP JUMPDEST ISZERO PUSH2 0x57A JUMPI PUSH1 0x40 MLOAD PUSH32 0x8C379A000000000000000000000000000000000000000000000000000000000 DUP2 MSTORE PUSH1 0x4 ADD PUSH2 0x571 SWAP1 PUSH2 0xED6 JUMP JUMPDEST PUSH1 0x40 MLOAD DUP1 SWAP2 SUB SWAP1 REVERT JUMPDEST PUSH1 0x40 MLOAD DUP1 PUSH1 0x40 ADD PUSH1 0x40 MSTORE DUP1 CALLER PUSH20 0xFFFFFFFFFFFFFFFFFFFFFFFFFFFFFFFFFFFFFFFF AND DUP2 MSTORE PUSH1 0x20 ADD DUP3 DUP2 MSTORE POP PUSH1 0x1 PUSH1 0x0 DUP5 PUSH20 0xFFFFFFFFFFFFFFFFFFFFFFFFFFFFFFFFFFFFFFFF AND PUSH20 0xFFFFFFFFFFFFFFFFFFFFFFFFFFFFFFFFFFFFFFFF AND DUP2 MSTORE PUSH1 0x20 ADD SWAP1 DUP2 MSTORE PUSH1 0x20 ADD PUSH1 0x0 KECCAK256 PUSH1 0x0 DUP3 ADD MLOAD DUP2 PUSH1 0x0 ADD PUSH1 0x0 PUSH2 0x100 EXP DUP2 SLOAD DUP2 PUSH20 0xFFFFFFFFFFFFFFFFFFFFFFFFFFFFFFFFFFFFFFFF MUL NOT AND SWAP1 DUP4 PUSH20 0xFFFFFFFFFFFFFFFFFFFFFFFFFFFFFFFFFFFFFFFF AND MUL OR SWAP1 SSTORE POP PUSH1 0x20 DUP3 ADD MLOAD DUP2 PUSH1 0x1 ADD SWAP1 DUP1 MLOAD SWAP1 PUSH1 0x20 ADD SWAP1 PUSH2 0x647 SWAP3 SWAP2 SWAP1 PUSH2 0x968 JUMP JUMPDEST POP SWAP1 POP POP POP POP JUMP JUMPDEST PUSH1 0x2 DUP1 SLOAD SWAP1 PUSH2 0x100 EXP SWAP1 DIV PUSH1 0xFF AND DUP2 JUMP JUMPDEST PUSH2 0x668 PUSH2 0x758 JUMP JUMPDEST PUSH20 0xFFFFFFFFFFFFFFFFFFFFFFFFFFFFFFFFFFFFFFFF AND PUSH2 0x686 PUSH2 0x4F6 JUMP JUMPDEST PUSH20 0xFFFFFFFFFFFFFFFFFFFFFFFFFFFFFFFFFFFFFFFF AND EQ PUSH2 0x6DC JUMPI PUSH1 0x40 MLOAD PUSH32 0x8C379A000000000000000000000000000000000000000000000000000000000 DUP2 MSTORE PUSH1 0x4 ADD PUSH2 0x6D3 SWAP1 PUSH2 0xE09 JUMP JUMPDEST PUSH1 0x40 MLOAD DUP1 SWAP2 SUB SWAP1 REVERT JUMPDEST PUSH1 0x0 PUSH20 0xFFFFFFFFFFFFFFFFFFFFFFFFFFFFFFFFFFFFFFFF AND DUP2 PUSH20 0xFFFFFFFFFFFFFFFFFFFFFFFFFFFFFFFFFFFFFFFF AND EQ ISZERO PUSH2 0x74C JUMPI PUSH1 0x40 MLOAD PUSH32 0x8C379A000000000000000000000000000000000000000000000000000000000 DUP2 MSTORE PUSH1 0x4 ADD PUSH2 0x743 SWAP1 PUSH2 0xF68 JUMP JUMPDEST PUSH1 0x40 MLOAD DUP1 SWAP2 SUB SWAP1 REVERT JUMPDEST PUSH2 0x755 DUP2 PUSH2 0x801 JUMP JUMPDEST POP JUMP JUMPDEST PUSH1 0x0 CALLER SWAP1 POP SWAP1 JUMP JUMPDEST PUSH2 0x768 PUSH2 0x2E9 JUMP JUMPDEST PUSH2 0x7A7 JUMPI PUSH1 0x40 MLOAD PUSH32 0x8C379A000000000000000000000000000000000000000000000000000000000 DUP2 MSTORE PUSH1 0x4 ADD PUSH2 0x79E SWAP1 PUSH2 0xFD4 JUMP JUMPDEST PUSH1 0x40 MLOAD DUP1 SWAP2 SUB SWAP1 REVERT JUMPDEST PUSH1 0x0 DUP1 PUSH1 0x0 PUSH2 0x100 EXP DUP2 SLOAD DUP2 PUSH1 0xFF MUL NOT AND SWAP1 DUP4 ISZERO ISZERO MUL OR SWAP1 SSTORE POP PUSH32 0x5DB9EE0A495BF2E6FF9C91A7834C1BA4FDD244A5E8AA4E537BD38AEAE4B073AA PUSH2 0x7EA PUSH2 0x758 JUMP JUMPDEST PUSH1 0x40 MLOAD PUSH2 0x7F7 SWAP2 SWAP1 PUSH2 0xC11 JUMP JUMPDEST PUSH1 0x40 MLOAD DUP1 SWAP2 SUB SWAP1 LOG1 JUMP JUMPDEST PUSH1 0x0 DUP1 PUSH1 0x1 SWAP1 SLOAD SWAP1 PUSH2 0x100 EXP SWAP1 DIV PUSH20 0xFFFFFFFFFFFFFFFFFFFFFFFFFFFFFFFFFFFFFFFF AND SWAP1 POP DUP2 PUSH1 0x0 PUSH1 0x1 PUSH2 0x100 EXP DUP2 SLOAD DUP2 PUSH20 0xFFFFFFFFFFFFFFFFFFFFFFFFFFFFFFFFFFFFFFFF MUL NOT AND SWAP1 DUP4 PUSH20 0xFFFFFFFFFFFFFFFFFFFFFFFFFFFFFFFFFFFFFFFF AND MUL OR SWAP1 SSTORE POP DUP2 PUSH20 0xFFFFFFFFFFFFFFFFFFFFFFFFFFFFFFFFFFFFFFFF AND DUP2 PUSH20 0xFFFFFFFFFFFFFFFFFFFFFFFFFFFFFFFFFFFFFFFF AND PUSH32 0x8BE0079C531659141344CD1FD0A4F28419497F9722A3DAAFE3B4186F6B6457E0 PUSH1 0x40 MLOAD PUSH1 0x40 MLOAD DUP1 SWAP2 SUB SWAP1 LOG3 POP POP JUMP JUMPDEST PUSH2 0x8CE PUSH2 0x2E9 JUMP JUMPDEST ISZERO PUSH2 0x90E JUMPI PUSH1 0x40 MLOAD PUSH32 0x8C379A000000000000000000000000000000000000000000000000000000000 DUP2 MSTORE PUSH1 0x4 ADD PUSH2 0x905 SWAP1 PUSH2 0xED6 JUMP JUMPDEST PUSH1 0x40 MLOAD DUP1 SWAP2 SUB SWAP1 REVERT JUMPDEST PUSH1 0x1 PUSH1 0x0 DUP1 PUSH2 0x100 EXP DUP2 SLOAD DUP2 PUSH1 0xFF MUL NOT AND SWAP1 DUP4 ISZERO ISZERO MUL OR SWAP1 SSTORE POP PUSH32 0x62E78CEA01BEE320CD4E420270B5EA74000D11B0C9F74754EBDBFC544B05A258 PUSH2 0x951 PUSH2 0x758 JUMP JUMPDEST PUSH1 0x40 MLOAD PUSH2 0x95E SWAP2 SWAP1 PUSH2 0xC11 JUMP JUMPDEST PUSH1 0x40 MLOAD DUP1 SWAP2 SUB SWAP1 LOG1 JUMP JUMPDEST DUP3 DUP1 SLOAD PUSH2 0x974 SWAP1 PUSH2 0xE58 JUMP JUMPDEST SWAP1 PUSH1 0x0 MSTORE PUSH1 0x20 PUSH1 0x0 KECCAK256 SWAP1 PUSH1 0x1F ADD PUSH1 0x20 SWAP1 DIV DUP2 ADD SWAP3 DUP3 PUSH2 0x996 JUMPI PUSH1 0x0 DUP6 SSTORE PUSH2 0x9DD JUMP JUMPDEST DUP3 PUSH1 0x1F LT PUSH2 0x9AF JUMPI DUP1 MLOAD PUSH1 0xFF NOT AND DUP4 DUP1 ADD OR DUP6 SSTORE PUSH2 0x9DD JUMP JUMPDEST DUP3 DUP1 ADD PUSH1 0x1 ADD DUP6 SSTORE DUP3 ISZERO PUSH2 0x9DD JUMPI SWAP2 DUP3 ADD JUMPDEST DUP3 DUP2 GT ISZERO PUSH2 0x9DC JUMPI DUP3 MLOAD DUP3 SSTORE SWAP2 PUSH1 0x20 ADD SWAP2 SWAP1 PUSH1 0x1 ADD SWAP1 PUSH2 0x9C1 JUMP JUMPDEST JUMPDEST POP SWAP1 POP PUSH2 0x9EA SWAP2 SWAP1 PUSH2 0x9EE JUMP JUMPDEST POP SWAP1 JUMP JUMPDEST JUMPDEST DUP1 DUP3 GT ISZERO PUSH2 0xA07 JUMPI PUSH1 0x0 DUP2 PUSH1 0x0 SWAP1 SSTORE POP PUSH1 0x1 ADD PUSH2 0x9EF JUMP JUMPDEST POP SWAP1 JUMP JUMPDEST PUSH1 0x0 DUP2 ISZERO ISZERO SWAP1 POP SWAP2 SWAP1 POP JUMP JUMPDEST PUSH2 0xA20 DUP2 PUSH2 0xA0B JUMP JUMPDEST DUP3 MSTORE POP POP JUMP JUMPDEST PUSH1 0x0 PUSH1 0x20 DUP3 ADD SWAP1 POP PUSH2 0xA3B PUSH1 0x0 DUP4 ADD DUP5 PUSH2 0xA17 JUMP JUMPDEST SWAP3 SWAP2 POP POP JUMP JUMPDEST PUSH1 0x0 PUSH1 0x40 MLOAD SWAP1 POP SWAP1 JUMP JUMPDEST PUSH1 0x0 DUP1 REVERT JUMPDEST PUSH1 0x0 DUP1 REVERT JUMPDEST PUSH1 0x0 PUSH20 0xFFFFFFFFFFFFFFFFFFFFFFFFFFFFFFFFFFFFFFFF DUP3 AND SWAP1 POP SWAP2 SWAP1 POP JUMP JUMPDEST PUSH1 0x0 PUSH2 0xA80 DUP3 PUSH2 0xA55 JUMP JUMPDEST SWAP1 POP SWAP2 SWAP1 POP JUMP JUMPDEST PUSH2 0xA90 DUP2 PUSH2 0xA75 JUMP JUMPDEST DUP2 EQ PUSH2 0xA9B JUMPI PUSH1 0x0 DUP1 REVERT JUMPDEST POP JUMP JUMPDEST PUSH1 0x0 DUP2 CALLDATALOAD SWAP1 POP PUSH2 0xAAD DUP2 PUSH2 0xA87 JUMP JUMPDEST SWAP3 SWAP2 POP POP JUMP JUMPDEST PUSH1 0x0 PUSH1 0x20 DUP3 DUP5 SUB SLT ISZERO PUSH2 0xAC9 JUMPI PUSH2 0xAC8 PUSH2 0xA4B JUMP JUMPDEST JUMPDEST PUSH1 0x0 PUSH2 0xAD7 DUP5 DUP3 DUP6 ADD PUSH2 0xA9E JUMP JUMPDEST SWAP2 POP POP SWAP3 SWAP2 POP POP JUMP JUMPDEST PUSH2 0xAE9 DUP2 PUSH2 0xA75 JUMP JUMPDEST DUP3 MSTORE POP POP JUMP JUMPDEST PUSH1 0x0 DUP2 MLOAD SWAP1 POP SWAP2 SWAP1 POP JUMP JUMPDEST PUSH1 0x0 DUP3 DUP3 MSTORE PUSH1 0x20 DUP3 ADD SWAP1 POP SWAP3 SWAP2 POP POP JUMP JUMPDEST PUSH1 0x0 JUMPDEST DUP4 DUP2 LT ISZERO PUSH2 0xB29 JUMPI DUP1 DUP3 ADD MLOAD DUP2 DUP5 ADD MSTORE PUSH1 0x20 DUP2 ADD SWAP1 POP PUSH2 0xB0E JUMP JUMPDEST DUP4 DUP2 GT ISZERO PUSH2 0xB38 JUMPI PUSH1 0x0 DUP5 DUP5 ADD MSTORE JUMPDEST POP POP POP POP JUMP JUMPDEST PUSH1 0x0 PUSH1 0x1F NOT PUSH1 0x1F DUP4 ADD AND SWAP1 POP SWAP2 SWAP1 POP JUMP JUMPDEST PUSH1 0x0 PUSH2 0xB5A DUP3 PUSH2 0xAEF JUMP JUMPDEST PUSH2 0xB64 DUP2 DUP6 PUSH2 0xAFA JUMP JUMPDEST SWAP4 POP PUSH2 0xB74 DUP2 DUP6 PUSH1 0x20 DUP7 ADD PUSH2 0xB0B JUMP JUMPDEST PUSH2 0xB7D DUP2 PUSH2 0xB3E JUMP JUMPDEST DUP5 ADD SWAP2 POP POP SWAP3 SWAP2 POP POP JUMP JUMPDEST PUSH1 0x0 PUSH1 0x40 DUP3 ADD SWAP1 POP PUSH2 0xB9D PUSH1 0x0 DUP4 ADD DUP6 PUSH2 0xAE0 JUMP JUMPDEST DUP2 DUP2 SUB PUSH1 0x20 DUP4 ADD MSTORE PUSH2 0xBAF DUP2 DUP5 PUSH2 0xB4F JUMP JUMPDEST SWAP1 POP SWAP4 SWAP3 POP POP POP JUMP JUMPDEST PUSH2 0xBC1 DUP2 PUSH2 0xA0B JUMP JUMPDEST DUP2 EQ PUSH2 0xBCC JUMPI PUSH1 0x0 DUP1 REVERT JUMPDEST POP JUMP JUMPDEST PUSH1 0x0 DUP2 CALLDATALOAD SWAP1 POP PUSH2 0xBDE DUP2 PUSH2 0xBB8 JUMP JUMPDEST SWAP3 SWAP2 POP POP JUMP JUMPDEST PUSH1 0x0 PUSH1 0x20 DUP3 DUP5 SUB SLT ISZERO PUSH2 0xBFA JUMPI PUSH2 0xBF9 PUSH2 0xA4B JUMP JUMPDEST JUMPDEST PUSH1 0x0 PUSH2 0xC08 DUP5 DUP3 DUP6 ADD PUSH2 0xBCF JUMP JUMPDEST SWAP2 POP POP SWAP3 SWAP2 POP POP JUMP JUMPDEST PUSH1 0x0 PUSH1 0x20 DUP3 ADD SWAP1 POP PUSH2 0xC26 PUSH1 0x0 DUP4 ADD DUP5 PUSH2 0xAE0 JUMP JUMPDEST SWAP3 SWAP2 POP POP JUMP JUMPDEST PUSH1 0x0 DUP1 REVERT JUMPDEST PUSH1 0x0 DUP1 REVERT JUMPDEST PUSH32 0x4E487B7100000000000000000000000000000000000000000000000000000000 PUSH1 0x0 MSTORE PUSH1 0x41 PUSH1 0x4 MSTORE PUSH1 0x24 PUSH1 0x0 REVERT JUMPDEST PUSH2 0xC6E DUP3 PUSH2 0xB3E JUMP JUMPDEST DUP2 ADD DUP2 DUP2 LT PUSH8 0xFFFFFFFFFFFFFFFF DUP3 GT OR ISZERO PUSH2 0xC8D JUMPI PUSH2 0xC8C PUSH2 0xC36 JUMP JUMPDEST JUMPDEST DUP1 PUSH1 0x40 MSTORE POP POP POP JUMP JUMPDEST PUSH1 0x0 PUSH2 0xCA0 PUSH2 0xA41 JUMP JUMPDEST SWAP1 POP PUSH2 0xCAC DUP3 DUP3 PUSH2 0xC65 JUMP JUMPDEST SWAP2 SWAP1 POP JUMP JUMPDEST PUSH1 0x0 PUSH8 0xFFFFFFFFFFFFFFFF DUP3 GT ISZERO PUSH2 0xCCC JUMPI PUSH2 0xCCB PUSH2 0xC36 JUMP JUMPDEST JUMPDEST PUSH2 0xCD5 DUP3 PUSH2 0xB3E JUMP JUMPDEST SWAP1 POP PUSH1 0x20 DUP2 ADD SWAP1 POP SWAP2 SWAP1 POP JUMP JUMPDEST DUP3 DUP2 DUP4 CALLDATACOPY PUSH1 0x0 DUP4 DUP4 ADD MSTORE POP POP POP JUMP JUMPDEST PUSH1 0x0 PUSH2 0xD04 PUSH2 0xCFF DUP5 PUSH2 0xCB1 JUMP JUMPDEST PUSH2 0xC96 JUMP JUMPDEST SWAP1 POP DUP3 DUP2 MSTORE PUSH1 0x20 DUP2 ADD DUP5 DUP5 DUP5 ADD GT ISZERO PUSH2 0xD20 JUMPI PUSH2 0xD1F PUSH2 0xC31 JUMP JUMPDEST JUMPDEST PUSH2 0xD2B DUP5 DUP3 DUP6 PUSH2 0xCE2 JUMP JUMPDEST POP SWAP4 SWAP3 POP POP POP JUMP JUMPDEST PUSH1 0x0 DUP3 PUSH1 0x1F DUP4 ADD SLT PUSH2 0xD48 JUMPI PUSH2 0xD47 PUSH2 0xC2C JUMP JUMPDEST JUMPDEST DUP2 CALLDATALOAD PUSH2 0xD58 DUP5 DUP3 PUSH1 0x20 DUP7 ADD PUSH2 0xCF1 JUMP JUMPDEST SWAP2 POP POP SWAP3 SWAP2 POP POP JUMP JUMPDEST PUSH1 0x0 DUP1 PUSH1 0x40 DUP4 DUP6 SUB SLT ISZERO PUSH2 0xD78 JUMPI PUSH2 0xD77 PUSH2 0xA4B JUMP JUMPDEST JUMPDEST PUSH1 0x0 PUSH2 0xD86 DUP6 DUP3 DUP7 ADD PUSH2 0xA9E JUMP JUMPDEST SWAP3 POP POP PUSH1 0x20 DUP4 ADD CALLDATALOAD PUSH8 0xFFFFFFFFFFFFFFFF DUP2 GT ISZERO PUSH2 0xDA7 JUMPI PUSH2 0xDA6 PUSH2 0xA50 JUMP JUMPDEST JUMPDEST PUSH2 0xDB3 DUP6 DUP3 DUP7 ADD PUSH2 0xD33 JUMP JUMPDEST SWAP2 POP POP SWAP3 POP SWAP3 SWAP1 POP JUMP JUMPDEST PUSH32 0x4F776E61626C653A2063616C6C6572206973206E6F7420746865206F776E6572 PUSH1 0x0 DUP3 ADD MSTORE POP JUMP JUMPDEST PUSH1 0x0 PUSH2 0xDF3 PUSH1 0x20 DUP4 PUSH2 0xAFA JUMP JUMPDEST SWAP2 POP PUSH2 0xDFE DUP3 PUSH2 0xDBD JUMP JUMPDEST PUSH1 0x20 DUP3 ADD SWAP1 POP SWAP2 SWAP1 POP JUMP JUMPDEST PUSH1 0x0 PUSH1 0x20 DUP3 ADD SWAP1 POP DUP2 DUP2 SUB PUSH1 0x0 DUP4 ADD MSTORE PUSH2 0xE22 DUP2 PUSH2 0xDE6 JUMP JUMPDEST SWAP1 POP SWAP2 SWAP1 POP JUMP JUMPDEST PUSH32 0x4E487B7100000000000000000000000000000000000000000000000000000000 PUSH1 0x0 MSTORE PUSH1 0x22 PUSH1 0x4 MSTORE PUSH1 0x24 PUSH1 0x0 REVERT JUMPDEST PUSH1 0x0 PUSH1 0x2 DUP3 DIV SWAP1 POP PUSH1 0x1 DUP3 AND DUP1 PUSH2 0xE70 JUMPI PUSH1 0x7F DUP3 AND SWAP2 POP JUMPDEST PUSH1 0x20 DUP3 LT DUP2 EQ ISZERO PUSH2 0xE84 JUMPI PUSH2 0xE83 PUSH2 0xE29 JUMP JUMPDEST JUMPDEST POP SWAP2 SWAP1 POP JUMP JUMPDEST PUSH32 0x5061757361626C653A2070617573656400000000000000000000000000000000 PUSH1 0x0 DUP3 ADD MSTORE POP JUMP JUMPDEST PUSH1 0x0 PUSH2 0xEC0 PUSH1 0x10 DUP4 PUSH2 0xAFA JUMP JUMPDEST SWAP2 POP PUSH2 0xECB DUP3 PUSH2 0xE8A JUMP JUMPDEST PUSH1 0x20 DUP3 ADD SWAP1 POP SWAP2 SWAP1 POP JUMP JUMPDEST PUSH1 0x0 PUSH1 0x20 DUP3 ADD SWAP1 POP DUP2 DUP2 SUB PUSH1 0x0 DUP4 ADD MSTORE PUSH2 0xEEF DUP2 PUSH2 0xEB3 JUMP JUMPDEST SWAP1 POP SWAP2 SWAP1 POP JUMP JUMPDEST PUSH32 0x4F776E61626C653A206E6577206F776E657220697320746865207A65726F2061 PUSH1 0x0 DUP3 ADD MSTORE PUSH32 0x6464726573730000000000000000000000000000000000000000000000000000 PUSH1 0x20 DUP3 ADD MSTORE POP JUMP JUMPDEST PUSH1 0x0 PUSH2 0xF52 PUSH1 0x26 DUP4 PUSH2 0xAFA JUMP JUMPDEST SWAP2 POP PUSH2 0xF5D DUP3 PUSH2 0xEF6 JUMP JUMPDEST PUSH1 0x40 DUP3 ADD SWAP1 POP SWAP2 SWAP1 POP JUMP JUMPDEST PUSH1 0x0 PUSH1 0x20 DUP3 ADD SWAP1 POP DUP2 DUP2 SUB PUSH1 0x0 DUP4 ADD MSTORE PUSH2 0xF81 DUP2 PUSH2 0xF45 JUMP JUMPDEST SWAP1 POP SWAP2 SWAP1 POP JUMP JUMPDEST PUSH32 0x5061757361626C653A206E6F7420706175736564000000000000000000000000 PUSH1 0x0 DUP3 ADD MSTORE POP JUMP JUMPDEST PUSH1 0x0 PUSH2 0xFBE PUSH1 0x14 DUP4 PUSH2 0xAFA JUMP JUMPDEST SWAP2 POP PUSH2 0xFC9 DUP3 PUSH2 0xF88 JUMP JUMPDEST PUSH1 0x20 DUP3 ADD SWAP1 POP SWAP2 SWAP1 POP JUMP JUMPDEST PUSH1 0x0 PUSH1 0x20 DUP3 ADD SWAP1 POP DUP2 DUP2 SUB PUSH1 0x0 DUP4 ADD MSTORE PUSH2 0xFED DUP2 PUSH2 0xFB1 JUMP JUMPDEST SWAP1 POP SWAP2 SWAP1 POP JUMP INVALID LOG2 PUSH5 0x6970667358 0x22 SLT KECCAK256 DUP14 RETURNDATASIZE 0xB5 0xE4 0xBA JUMP PUSH3 0x245FCD PUSH23 0x29C8D3EC68FE3BCBCE9D248560CFBFF4B7F46BC47E6473 PUSH16 0x6C634300080A00330000000000000000 "
        },
        "methodIdentifiers": {
          "anotherBool()": "12e59769",
          "changeBool(bool)": "6d689779",
          "messages(address)": "5fdd59f8",
          "owner()": "8da5cb5b",
          "pause()": "8456cb59",
          "paused()": "5c975abb",
          "renounceOwnership()": "715018a6",
          "sendMessage(address,string)": "de6f24bb",
          "someBool()": "c2779c86",
          "someMapping()": "e4d12eeb",
          "throwError()": "2f7643a8",
          "transferOwnership(address)": "f2fde38b",
          "unpause()": "3f4ba83a"
        }
      }
    }
  }
}