{
  "_format": "hh-sol-artifact-1",
  "contractName": "OnChainMessengerV4",
  "sourceName": "contracts/OnChainMessengerV4.sol",
  "abi": [
    {
      "anonymous": false,
      "inputs": [
        {
          "indexed": false,
          "internalType": "address",
          "name": "sender",
          "type": "address"
        }
      ],
      "name": "Error",
      "type": "event"
    },
    {
      "anonymous": false,
      "inputs": [
        {
          "indexed": true,
          "internalType": "address",
          "name": "previousOwner",
          "type": "address"
        },
        {
          "indexed": true,
          "internalType": "address",
          "name": "newOwner",
          "type": "address"
        }
      ],
      "name": "OwnershipTransferred",
      "type": "event"
    },
    {
      "anonymous": false,
      "inputs": [
        {
          "indexed": false,
          "internalType": "address",
          "name": "account",
          "type": "address"
        }
      ],
      "name": "Paused",
      "type": "event"
    },
    {
      "anonymous": false,
      "inputs": [
        {
          "indexed": false,
          "internalType": "address",
          "name": "account",
          "type": "address"
        }
      ],
      "name": "Unpaused",
      "type": "event"
    },
    {
      "inputs": [],
      "name": "anotherBool",
      "outputs": [
        {
          "internalType": "bool",
          "name": "",
          "type": "bool"
        }
      ],
      "stateMutability": "view",
      "type": "function"
    },
    {
      "inputs": [
        {
          "internalType": "bool",
          "name": "_newBool",
          "type": "bool"
        }
      ],
      "name": "changeBool",
      "outputs": [],
      "stateMutability": "nonpayable",
      "type": "function"
    },
    {
      "inputs": [
        {
          "internalType": "address",
          "name": "",
          "type": "address"
        }
      ],
      "name": "messages",
      "outputs": [
        {
          "internalType": "address",
          "name": "sender",
          "type": "address"
        },
        {
          "internalType": "string",
          "name": "content",
          "type": "string"
        }
      ],
      "stateMutability": "view",
      "type": "function"
    },
    {
      "inputs": [],
      "name": "owner",
      "outputs": [
        {
          "internalType": "address",
          "name": "",
          "type": "address"
        }
      ],
      "stateMutability": "view",
      "type": "function"
    },
    {
      "inputs": [],
      "name": "pause",
      "outputs": [],
      "stateMutability": "nonpayable",
      "type": "function"
    },
    {
      "inputs": [],
      "name": "paused",
      "outputs": [
        {
          "internalType": "bool",
          "name": "",
          "type": "bool"
        }
      ],
      "stateMutability": "view",
      "type": "function"
    },
    {
      "inputs": [],
      "name": "renounceOwnership",
      "outputs": [],
      "stateMutability": "nonpayable",
      "type": "function"
    },
    {
      "inputs": [
        {
          "internalType": "address",
          "name": "recipient",
          "type": "address"
        },
        {
          "internalType": "string",
          "name": "message",
          "type": "string"
        }
      ],
      "name": "sendMessage",
      "outputs": [],
      "stateMutability": "nonpayable",
      "type": "function"
    },
    {
      "inputs": [],
      "name": "someBool",
      "outputs": [
        {
          "internalType": "bool",
          "name": "",
          "type": "bool"
        }
      ],
      "stateMutability": "view",
      "type": "function"
    },
    {
      "inputs": [],
      "name": "throwError",
      "outputs": [],
      "stateMutability": "nonpayable",
      "type": "function"
    },
    {
      "inputs": [
        {
          "internalType": "address",
          "name": "newOwner",
          "type": "address"
        }
      ],
      "name": "transferOwnership",
      "outputs": [],
      "stateMutability": "nonpayable",
      "type": "function"
    },
    {
      "inputs": [],
      "name": "unpause",
      "outputs": [],
      "stateMutability": "nonpayable",
      "type": "function"
    }
  ],
  "bytecode": "0x608060405234801561001057600080fd5b5060008060006101000a81548160ff02191690831515021790555061004761003c61004c60201b60201c565b61005460201b60201c565b610119565b600033905090565b60008060019054906101000a900473ffffffffffffffffffffffffffffffffffffffff16905081600060016101000a81548173ffffffffffffffffffffffffffffffffffffffff021916908373ffffffffffffffffffffffffffffffffffffffff1602179055508173ffffffffffffffffffffffffffffffffffffffff168173ffffffffffffffffffffffffffffffffffffffff167f8be0079c531659141344cd1fd0a4f28419497f9722a3daafe3b4186f6b6457e060405160405180910390a35050565b610fe0806101286000396000f3fe608060405234801561001057600080fd5b50600436106100b45760003560e01c8063715018a611610071578063715018a6146101565780638456cb59146101605780638da5cb5b1461016a578063c2779c8614610188578063de6f24bb146101a6578063f2fde38b146101c2576100b4565b806312e59769146100b95780632f7643a8146100d75780633f4ba83a146100e15780635c975abb146100eb5780635fdd59f8146101095780636d6897791461013a575b600080fd5b6100c16101de565b6040516100ce91906109dc565b60405180910390f35b6100df6101f1565b005b6100e961022a565b005b6100f36102b0565b60405161010091906109dc565b60405180910390f35b610123600480360381019061011e9190610a69565b6102c6565b604051610131929190610b3e565b60405180910390f35b610154600480360381019061014f9190610b9a565b610392565b005b61015e6103af565b005b610168610437565b005b6101726104bd565b60405161017f9190610bc7565b60405180910390f35b6101906104e6565b60405161019d91906109dc565b60405180910390f35b6101c060048036038101906101bb9190610d17565b6104f9565b005b6101dc60048036038101906101d79190610a69565b610616565b005b600260019054906101000a900460ff1681565b7f7ab3ca8d9c315e41f56f37c7e1fb65062a6c0c242c3c28ed0bf47db6be2b10ea336040516102209190610bc7565b60405180910390a1565b61023261070e565b73ffffffffffffffffffffffffffffffffffffffff166102506104bd565b73ffffffffffffffffffffffffffffffffffffffff16146102a6576040517f08c379a000000000000000000000000000000000000000000000000000000000815260040161029d90610dbf565b60405180910390fd5b6102ae610716565b565b60008060009054906101000a900460ff16905090565b60016020528060005260406000206000915090508060000160009054906101000a900473ffffffffffffffffffffffffffffffffffffffff169080600101805461030f90610e0e565b80601f016020809104026020016040519081016040528092919081815260200182805461033b90610e0e565b80156103885780601f1061035d57610100808354040283529160200191610388565b820191906000526020600020905b81548152906001019060200180831161036b57829003601f168201915b5050505050905082565b80600260006101000a81548160ff02191690831515021790555050565b6103b761070e565b73ffffffffffffffffffffffffffffffffffffffff166103d56104bd565b73ffffffffffffffffffffffffffffffffffffffff161461042b576040517f08c379a000000000000000000000000000000000000000000000000000000000815260040161042290610dbf565b60405180910390fd5b61043560006107b7565b565b61043f61070e565b73ffffffffffffffffffffffffffffffffffffffff1661045d6104bd565b73ffffffffffffffffffffffffffffffffffffffff16146104b3576040517f08c379a00000000000000000000000000000000000000000000000000000000081526004016104aa90610dbf565b60405180910390fd5b6104bb61087c565b565b60008060019054906101000a900473ffffffffffffffffffffffffffffffffffffffff16905090565b600260009054906101000a900460ff1681565b6105016102b0565b15610541576040517f08c379a000000000000000000000000000000000000000000000000000000000815260040161053890610e8c565b60405180910390fd5b60405180604001604052803373ffffffffffffffffffffffffffffffffffffffff16815260200182815250600160008473ffffffffffffffffffffffffffffffffffffffff1673ffffffffffffffffffffffffffffffffffffffff16815260200190815260200160002060008201518160000160006101000a81548173ffffffffffffffffffffffffffffffffffffffff021916908373ffffffffffffffffffffffffffffffffffffffff160217905550602082015181600101908051906020019061060e92919061091e565b509050505050565b61061e61070e565b73ffffffffffffffffffffffffffffffffffffffff1661063c6104bd565b73ffffffffffffffffffffffffffffffffffffffff1614610692576040517f08c379a000000000000000000000000000000000000000000000000000000000815260040161068990610dbf565b60405180910390fd5b600073ffffffffffffffffffffffffffffffffffffffff168173ffffffffffffffffffffffffffffffffffffffff161415610702576040517f08c379a00000000000000000000000000000000000000000000000000000000081526004016106f990610f1e565b60405180910390fd5b61070b816107b7565b50565b600033905090565b61071e6102b0565b61075d576040517f08c379a000000000000000000000000000000000000000000000000000000000815260040161075490610f8a565b60405180910390fd5b60008060006101000a81548160ff0219169083151502179055507f5db9ee0a495bf2e6ff9c91a7834c1ba4fdd244a5e8aa4e537bd38aeae4b073aa6107a061070e565b6040516107ad9190610bc7565b60405180910390a1565b60008060019054906101000a900473ffffffffffffffffffffffffffffffffffffffff16905081600060016101000a81548173ffffffffffffffffffffffffffffffffffffffff021916908373ffffffffffffffffffffffffffffffffffffffff1602179055508173ffffffffffffffffffffffffffffffffffffffff168173ffffffffffffffffffffffffffffffffffffffff167f8be0079c531659141344cd1fd0a4f28419497f9722a3daafe3b4186f6b6457e060405160405180910390a35050565b6108846102b0565b156108c4576040517f08c379a00000000000000000000000000000000000000000000000000000000081526004016108bb90610e8c565b60405180910390fd5b60016000806101000a81548160ff0219169083151502179055507f62e78cea01bee320cd4e420270b5ea74000d11b0c9f74754ebdbfc544b05a25861090761070e565b6040516109149190610bc7565b60405180910390a1565b82805461092a90610e0e565b90600052602060002090601f01602090048101928261094c5760008555610993565b82601f1061096557805160ff1916838001178555610993565b82800160010185558215610993579182015b82811115610992578251825591602001919060010190610977565b5b5090506109a091906109a4565b5090565b5b808211156109bd5760008160009055506001016109a5565b5090565b60008115159050919050565b6109d6816109c1565b82525050565b60006020820190506109f160008301846109cd565b92915050565b6000604051905090565b600080fd5b600080fd5b600073ffffffffffffffffffffffffffffffffffffffff82169050919050565b6000610a3682610a0b565b9050919050565b610a4681610a2b565b8114610a5157600080fd5b50565b600081359050610a6381610a3d565b92915050565b600060208284031215610a7f57610a7e610a01565b5b6000610a8d84828501610a54565b91505092915050565b610a9f81610a2b565b82525050565b600081519050919050565b600082825260208201905092915050565b60005b83811015610adf578082015181840152602081019050610ac4565b83811115610aee576000848401525b50505050565b6000601f19601f8301169050919050565b6000610b1082610aa5565b610b1a8185610ab0565b9350610b2a818560208601610ac1565b610b3381610af4565b840191505092915050565b6000604082019050610b536000830185610a96565b8181036020830152610b658184610b05565b90509392505050565b610b77816109c1565b8114610b8257600080fd5b50565b600081359050610b9481610b6e565b92915050565b600060208284031215610bb057610baf610a01565b5b6000610bbe84828501610b85565b91505092915050565b6000602082019050610bdc6000830184610a96565b92915050565b600080fd5b600080fd5b7f4e487b7100000000000000000000000000000000000000000000000000000000600052604160045260246000fd5b610c2482610af4565b810181811067ffffffffffffffff82111715610c4357610c42610bec565b5b80604052505050565b6000610c566109f7565b9050610c628282610c1b565b919050565b600067ffffffffffffffff821115610c8257610c81610bec565b5b610c8b82610af4565b9050602081019050919050565b82818337600083830152505050565b6000610cba610cb584610c67565b610c4c565b905082815260208101848484011115610cd657610cd5610be7565b5b610ce1848285610c98565b509392505050565b600082601f830112610cfe57610cfd610be2565b5b8135610d0e848260208601610ca7565b91505092915050565b60008060408385031215610d2e57610d2d610a01565b5b6000610d3c85828601610a54565b925050602083013567ffffffffffffffff811115610d5d57610d5c610a06565b5b610d6985828601610ce9565b9150509250929050565b7f4f776e61626c653a2063616c6c6572206973206e6f7420746865206f776e6572600082015250565b6000610da9602083610ab0565b9150610db482610d73565b602082019050919050565b60006020820190508181036000830152610dd881610d9c565b9050919050565b7f4e487b7100000000000000000000000000000000000000000000000000000000600052602260045260246000fd5b60006002820490506001821680610e2657607f821691505b60208210811415610e3a57610e39610ddf565b5b50919050565b7f5061757361626c653a2070617573656400000000000000000000000000000000600082015250565b6000610e76601083610ab0565b9150610e8182610e40565b602082019050919050565b60006020820190508181036000830152610ea581610e69565b9050919050565b7f4f776e61626c653a206e6577206f776e657220697320746865207a65726f206160008201527f6464726573730000000000000000000000000000000000000000000000000000602082015250565b6000610f08602683610ab0565b9150610f1382610eac565b604082019050919050565b60006020820190508181036000830152610f3781610efb565b9050919050565b7f5061757361626c653a206e6f7420706175736564000000000000000000000000600082015250565b6000610f74601483610ab0565b9150610f7f82610f3e565b602082019050919050565b60006020820190508181036000830152610fa381610f67565b905091905056fea26469706673582212208bb37510851a9732f261d0e9b44a1a98076df0831b612d81e3e4daca59d8695a64736f6c634300080a0033",
  "linkReferences": {},
  "deployedLinkReferences": {}
}