{
  "_format": "hh-sol-artifact-1",
  "contractName": "OnChainMessengerV5",
  "sourceName": "contracts/OnChainMessengerV5.sol",
  "abi": [
    {
      "anonymous": false,
      "inputs": [
        {
          "indexed": false,
          "internalType": "address",
          "name": "sender",
          "type": "address"
        }
      ],
      "name": "Error",
      "type": "event"
    },
    {
      "anonymous": false,
      "inputs": [
        {
          "indexed": true,
          "internalType": "address",
          "name": "previousOwner",
          "type": "address"
        },
        {
          "indexed": true,
          "internalType": "address",
          "name": "newOwner",
          "type": "address"
        }
      ],
      "name": "OwnershipTransferred",
      "type": "event"
    },
    {
      "anonymous": false,
      "inputs": [
        {
          "indexed": false,
          "internalType": "address",
          "name": "account",
          "type": "address"
        }
      ],
      "name": "Paused",
      "type": "event"
    },
    {
      "anonymous": false,
      "inputs": [
        {
          "indexed": false,
          "internalType": "address",
          "name": "account",
          "type": "address"
        }
      ],
      "name": "Unpaused",
      "type": "event"
    },
    {
      "inputs": [],
      "name": "anotherBool",
      "outputs": [
        {
          "internalType": "bool",
          "name": "",
          "type": "bool"
        }
      ],
      "stateMutability": "view",
      "type": "function"
    },
    {
      "inputs": [
        {
          "internalType": "bool",
          "name": "_newBool",
          "type": "bool"
        }
      ],
      "name": "changeBool",
      "outputs": [],
      "stateMutability": "nonpayable",
      "type": "function"
    },
    {
      "inputs": [
        {
          "internalType": "address",
          "name": "",
          "type": "address"
        }
      ],
      "name": "messages",
      "outputs": [
        {
          "internalType": "address",
          "name": "sender",
          "type": "address"
        },
        {
          "internalType": "string",
          "name": "content",
          "type": "string"
        }
      ],
      "stateMutability": "view",
      "type": "function"
    },
    {
      "inputs": [],
      "name": "owner",
      "outputs": [
        {
          "internalType": "address",
          "name": "",
          "type": "address"
        }
      ],
      "stateMutability": "view",
      "type": "function"
    },
    {
      "inputs": [],
      "name": "pause",
      "outputs": [],
      "stateMutability": "nonpayable",
      "type": "function"
    },
    {
      "inputs": [],
      "name": "paused",
      "outputs": [
        {
          "internalType": "bool",
          "name": "",
          "type": "bool"
        }
      ],
      "stateMutability": "view",
      "type": "function"
    },
    {
      "inputs": [],
      "name": "renounceOwnership",
      "outputs": [],
      "stateMutability": "nonpayable",
      "type": "function"
    },
    {
      "inputs": [
        {
          "internalType": "address",
          "name": "recipient",
          "type": "address"
        },
        {
          "internalType": "string",
          "name": "message",
          "type": "string"
        }
      ],
      "name": "sendMessage",
      "outputs": [],
      "stateMutability": "nonpayable",
      "type": "function"
    },
    {
      "inputs": [],
      "name": "someBool",
      "outputs": [
        {
          "internalType": "bool",
          "name": "",
          "type": "bool"
        }
      ],
      "stateMutability": "view",
      "type": "function"
    },
    {
      "inputs": [],
      "name": "someMapping",
      "outputs": [
        {
          "internalType": "bool",
          "name": "",
          "type": "bool"
        }
      ],
      "stateMutability": "view",
      "type": "function"
    },
    {
      "inputs": [],
      "name": "throwError",
      "outputs": [],
      "stateMutability": "nonpayable",
      "type": "function"
    },
    {
      "inputs": [
        {
          "internalType": "address",
          "name": "newOwner",
          "type": "address"
        }
      ],
      "name": "transferOwnership",
      "outputs": [],
      "stateMutability": "nonpayable",
      "type": "function"
    },
    {
      "inputs": [],
      "name": "unpause",
      "outputs": [],
      "stateMutability": "nonpayable",
      "type": "function"
    }
  ],
  "bytecode": "0x608060405234801561001057600080fd5b5060008060006101000a81548160ff02191690831515021790555061004761003c61004c60201b60201c565b61005460201b60201c565b610119565b600033905090565b60008060019054906101000a900473ffffffffffffffffffffffffffffffffffffffff16905081600060016101000a81548173ffffffffffffffffffffffffffffffffffffffff021916908373ffffffffffffffffffffffffffffffffffffffff1602179055508173ffffffffffffffffffffffffffffffffffffffff168173ffffffffffffffffffffffffffffffffffffffff167f8be0079c531659141344cd1fd0a4f28419497f9722a3daafe3b4186f6b6457e060405160405180910390a35050565b61102a806101286000396000f3fe608060405234801561001057600080fd5b50600436106100cf5760003560e01c8063715018a61161008c578063c2779c8611610066578063c2779c86146101a3578063de6f24bb146101c1578063e4d12eeb146101dd578063f2fde38b146101fb576100cf565b8063715018a6146101715780638456cb591461017b5780638da5cb5b14610185576100cf565b806312e59769146100d45780632f7643a8146100f25780633f4ba83a146100fc5780635c975abb146101065780635fdd59f8146101245780636d68977914610155575b600080fd5b6100dc610217565b6040516100e99190610a26565b60405180910390f35b6100fa61022a565b005b610104610263565b005b61010e6102e9565b60405161011b9190610a26565b60405180910390f35b61013e60048036038101906101399190610ab3565b6102ff565b60405161014c929190610b88565b60405180910390f35b61016f600480360381019061016a9190610be4565b6103cb565b005b6101796103e8565b005b610183610470565b005b61018d6104f6565b60405161019a9190610c11565b60405180910390f35b6101ab61051f565b6040516101b89190610a26565b60405180910390f35b6101db60048036038101906101d69190610d61565b610532565b005b6101e561064f565b6040516101f29190610a26565b60405180910390f35b61021560048036038101906102109190610ab3565b610660565b005b600260019054906101000a900460ff1681565b7f7ab3ca8d9c315e41f56f37c7e1fb65062a6c0c242c3c28ed0bf47db6be2b10ea336040516102599190610c11565b60405180910390a1565b61026b610758565b73ffffffffffffffffffffffffffffffffffffffff166102896104f6565b73ffffffffffffffffffffffffffffffffffffffff16146102df576040517f08c379a00000000000000000000000000000000000000000000000000000000081526004016102d690610e09565b60405180910390fd5b6102e7610760565b565b60008060009054906101000a900460ff16905090565b60016020528060005260406000206000915090508060000160009054906101000a900473ffffffffffffffffffffffffffffffffffffffff169080600101805461034890610e58565b80601f016020809104026020016040519081016040528092919081815260200182805461037490610e58565b80156103c15780601f10610396576101008083540402835291602001916103c1565b820191906000526020600020905b8154815290600101906020018083116103a457829003601f168201915b5050505050905082565b80600260006101000a81548160ff02191690831515021790555050565b6103f0610758565b73ffffffffffffffffffffffffffffffffffffffff1661040e6104f6565b73ffffffffffffffffffffffffffffffffffffffff1614610464576040517f08c379a000000000000000000000000000000000000000000000000000000000815260040161045b90610e09565b60405180910390fd5b61046e6000610801565b565b610478610758565b73ffffffffffffffffffffffffffffffffffffffff166104966104f6565b73ffffffffffffffffffffffffffffffffffffffff16146104ec576040517f08c379a00000000000000000000000000000000000000000000000000000000081526004016104e390610e09565b60405180910390fd5b6104f46108c6565b565b60008060019054906101000a900473ffffffffffffffffffffffffffffffffffffffff16905090565b600260009054906101000a900460ff1681565b61053a6102e9565b1561057a576040517f08c379a000000000000000000000000000000000000000000000000000000000815260040161057190610ed6565b60405180910390fd5b60405180604001604052803373ffffffffffffffffffffffffffffffffffffffff16815260200182815250600160008473ffffffffffffffffffffffffffffffffffffffff1673ffffffffffffffffffffffffffffffffffffffff16815260200190815260200160002060008201518160000160006101000a81548173ffffffffffffffffffffffffffffffffffffffff021916908373ffffffffffffffffffffffffffffffffffffffff1602179055506020820151816001019080519060200190610647929190610968565b509050505050565b60028054906101000a900460ff1681565b610668610758565b73ffffffffffffffffffffffffffffffffffffffff166106866104f6565b73ffffffffffffffffffffffffffffffffffffffff16146106dc576040517f08c379a00000000000000000000000000000000000000000000000000000000081526004016106d390610e09565b60405180910390fd5b600073ffffffffffffffffffffffffffffffffffffffff168173ffffffffffffffffffffffffffffffffffffffff16141561074c576040517f08c379a000000000000000000000000000000000000000000000000000000000815260040161074390610f68565b60405180910390fd5b61075581610801565b50565b600033905090565b6107686102e9565b6107a7576040517f08c379a000000000000000000000000000000000000000000000000000000000815260040161079e90610fd4565b60405180910390fd5b60008060006101000a81548160ff0219169083151502179055507f5db9ee0a495bf2e6ff9c91a7834c1ba4fdd244a5e8aa4e537bd38aeae4b073aa6107ea610758565b6040516107f79190610c11565b60405180910390a1565b60008060019054906101000a900473ffffffffffffffffffffffffffffffffffffffff16905081600060016101000a81548173ffffffffffffffffffffffffffffffffffffffff021916908373ffffffffffffffffffffffffffffffffffffffff1602179055508173ffffffffffffffffffffffffffffffffffffffff168173ffffffffffffffffffffffffffffffffffffffff167f8be0079c531659141344cd1fd0a4f28419497f9722a3daafe3b4186f6b6457e060405160405180910390a35050565b6108ce6102e9565b1561090e576040517f08c379a000000000000000000000000000000000000000000000000000000000815260040161090590610ed6565b60405180910390fd5b60016000806101000a81548160ff0219169083151502179055507f62e78cea01bee320cd4e420270b5ea74000d11b0c9f74754ebdbfc544b05a258610951610758565b60405161095e9190610c11565b60405180910390a1565b82805461097490610e58565b90600052602060002090601f01602090048101928261099657600085556109dd565b82601f106109af57805160ff19168380011785556109dd565b828001600101855582156109dd579182015b828111156109dc5782518255916020019190600101906109c1565b5b5090506109ea91906109ee565b5090565b5b80821115610a075760008160009055506001016109ef565b5090565b60008115159050919050565b610a2081610a0b565b82525050565b6000602082019050610a3b6000830184610a17565b92915050565b6000604051905090565b600080fd5b600080fd5b600073ffffffffffffffffffffffffffffffffffffffff82169050919050565b6000610a8082610a55565b9050919050565b610a9081610a75565b8114610a9b57600080fd5b50565b600081359050610aad81610a87565b92915050565b600060208284031215610ac957610ac8610a4b565b5b6000610ad784828501610a9e565b91505092915050565b610ae981610a75565b82525050565b600081519050919050565b600082825260208201905092915050565b60005b83811015610b29578082015181840152602081019050610b0e565b83811115610b38576000848401525b50505050565b6000601f19601f8301169050919050565b6000610b5a82610aef565b610b648185610afa565b9350610b74818560208601610b0b565b610b7d81610b3e565b840191505092915050565b6000604082019050610b9d6000830185610ae0565b8181036020830152610baf8184610b4f565b90509392505050565b610bc181610a0b565b8114610bcc57600080fd5b50565b600081359050610bde81610bb8565b92915050565b600060208284031215610bfa57610bf9610a4b565b5b6000610c0884828501610bcf565b91505092915050565b6000602082019050610c266000830184610ae0565b92915050565b600080fd5b600080fd5b7f4e487b7100000000000000000000000000000000000000000000000000000000600052604160045260246000fd5b610c6e82610b3e565b810181811067ffffffffffffffff82111715610c8d57610c8c610c36565b5b80604052505050565b6000610ca0610a41565b9050610cac8282610c65565b919050565b600067ffffffffffffffff821115610ccc57610ccb610c36565b5b610cd582610b3e565b9050602081019050919050565b82818337600083830152505050565b6000610d04610cff84610cb1565b610c96565b905082815260208101848484011115610d2057610d1f610c31565b5b610d2b848285610ce2565b509392505050565b600082601f830112610d4857610d47610c2c565b5b8135610d58848260208601610cf1565b91505092915050565b60008060408385031215610d7857610d77610a4b565b5b6000610d8685828601610a9e565b925050602083013567ffffffffffffffff811115610da757610da6610a50565b5b610db385828601610d33565b9150509250929050565b7f4f776e61626c653a2063616c6c6572206973206e6f7420746865206f776e6572600082015250565b6000610df3602083610afa565b9150610dfe82610dbd565b602082019050919050565b60006020820190508181036000830152610e2281610de6565b9050919050565b7f4e487b7100000000000000000000000000000000000000000000000000000000600052602260045260246000fd5b60006002820490506001821680610e7057607f821691505b60208210811415610e8457610e83610e29565b5b50919050565b7f5061757361626c653a2070617573656400000000000000000000000000000000600082015250565b6000610ec0601083610afa565b9150610ecb82610e8a565b602082019050919050565b60006020820190508181036000830152610eef81610eb3565b9050919050565b7f4f776e61626c653a206e6577206f776e657220697320746865207a65726f206160008201527f6464726573730000000000000000000000000000000000000000000000000000602082015250565b6000610f52602683610afa565b9150610f5d82610ef6565b604082019050919050565b60006020820190508181036000830152610f8181610f45565b9050919050565b7f5061757361626c653a206e6f7420706175736564000000000000000000000000600082015250565b6000610fbe601483610afa565b9150610fc982610f88565b602082019050919050565b60006020820190508181036000830152610fed81610fb1565b905091905056fea26469706673582212208d3db5e4ba5662245fcd7629c8d3ec68fe3bcbce9d248560cfbff4b7f46bc47e64736f6c634300080a0033",
  "linkReferences": {},
  "deployedLinkReferences": {}
}