{
  "_format": "hh-sol-artifact-1",
  "contractName": "OnChainMessengerV2",
  "sourceName": "contracts/OnChainMessengerV2.sol",
  "abi": [
    {
      "anonymous": false,
      "inputs": [
        {
          "indexed": false,
          "internalType": "address",
          "name": "sender",
          "type": "address"
        }
      ],
      "name": "Error",
      "type": "event"
    },
    {
      "anonymous": false,
      "inputs": [
        {
          "indexed": true,
          "internalType": "address",
          "name": "previousOwner",
          "type": "address"
        },
        {
          "indexed": true,
          "internalType": "address",
          "name": "newOwner",
          "type": "address"
        }
      ],
      "name": "OwnershipTransferred",
      "type": "event"
    },
    {
      "anonymous": false,
      "inputs": [
        {
          "indexed": false,
          "internalType": "address",
          "name": "account",
          "type": "address"
        }
      ],
      "name": "Paused",
      "type": "event"
    },
    {
      "anonymous": false,
      "inputs": [
        {
          "indexed": false,
          "internalType": "address",
          "name": "account",
          "type": "address"
        }
      ],
      "name": "Unpaused",
      "type": "event"
    },
    {
      "inputs": [
        {
          "internalType": "address",
          "name": "",
          "type": "address"
        }
      ],
      "name": "messages",
      "outputs": [
        {
          "internalType": "address",
          "name": "sender",
          "type": "address"
        },
        {
          "internalType": "string",
          "name": "content",
          "type": "string"
        }
      ],
      "stateMutability": "view",
      "type": "function"
    },
    {
      "inputs": [],
      "name": "owner",
      "outputs": [
        {
          "internalType": "address",
          "name": "",
          "type": "address"
        }
      ],
      "stateMutability": "view",
      "type": "function"
    },
    {
      "inputs": [],
      "name": "pause",
      "outputs": [],
      "stateMutability": "nonpayable",
      "type": "function"
    },
    {
      "inputs": [],
      "name": "paused",
      "outputs": [
        {
          "internalType": "bool",
          "name": "",
          "type": "bool"
        }
      ],
      "stateMutability": "view",
      "type": "function"
    },
    {
      "inputs": [],
      "name": "renounceOwnership",
      "outputs": [],
      "stateMutability": "nonpayable",
      "type": "function"
    },
    {
      "inputs": [
        {
          "internalType": "address",
          "name": "recipient",
          "type": "address"
        },
        {
          "internalType": "string",
          "name": "message",
          "type": "string"
        }
      ],
      "name": "sendMessage",
      "outputs": [],
      "stateMutability": "nonpayable",
      "type": "function"
    },
    {
      "inputs": [],
      "name": "throwError",
      "outputs": [],
      "stateMutability": "nonpayable",
      "type": "function"
    },
    {
      "inputs": [
        {
          "internalType": "address",
          "name": "newOwner",
          "type": "address"
        }
      ],
      "name": "transferOwnership",
      "outputs": [],
      "stateMutability": "nonpayable",
      "type": "function"
    },
    {
      "inputs": [],
      "name": "unpause",
      "outputs": [],
      "stateMutability": "nonpayable",
      "type": "function"
    }
  ],
  "bytecode": "0x608060405234801561001057600080fd5b5060008060006101000a81548160ff02191690831515021790555061004761003c61004c60201b60201c565b61005460201b60201c565b610119565b600033905090565b60008060019054906101000a900473ffffffffffffffffffffffffffffffffffffffff16905081600060016101000a81548173ffffffffffffffffffffffffffffffffffffffff021916908373ffffffffffffffffffffffffffffffffffffffff1602179055508173ffffffffffffffffffffffffffffffffffffffff168173ffffffffffffffffffffffffffffffffffffffff167f8be0079c531659141344cd1fd0a4f28419497f9722a3daafe3b4186f6b6457e060405160405180910390a35050565b610ecb806101286000396000f3fe608060405234801561001057600080fd5b50600436106100935760003560e01c8063715018a611610066578063715018a6146100fb5780638456cb59146101055780638da5cb5b1461010f578063de6f24bb1461012d578063f2fde38b1461014957610093565b80632f7643a8146100985780633f4ba83a146100a25780635c975abb146100ac5780635fdd59f8146100ca575b600080fd5b6100a0610165565b005b6100aa61019e565b005b6100b4610224565b6040516100c19190610920565b60405180910390f35b6100e460048036038101906100df91906109ad565b61023a565b6040516100f2929190610a82565b60405180910390f35b610103610306565b005b61010d61038e565b005b610117610414565b6040516101249190610ab2565b60405180910390f35b61014760048036038101906101429190610c02565b61043d565b005b610163600480360381019061015e91906109ad565b61055a565b005b7f7ab3ca8d9c315e41f56f37c7e1fb65062a6c0c242c3c28ed0bf47db6be2b10ea336040516101949190610ab2565b60405180910390a1565b6101a6610652565b73ffffffffffffffffffffffffffffffffffffffff166101c4610414565b73ffffffffffffffffffffffffffffffffffffffff161461021a576040517f08c379a000000000000000000000000000000000000000000000000000000000815260040161021190610caa565b60405180910390fd5b61022261065a565b565b60008060009054906101000a900460ff16905090565b60016020528060005260406000206000915090508060000160009054906101000a900473ffffffffffffffffffffffffffffffffffffffff169080600101805461028390610cf9565b80601f01602080910402602001604051908101604052809291908181526020018280546102af90610cf9565b80156102fc5780601f106102d1576101008083540402835291602001916102fc565b820191906000526020600020905b8154815290600101906020018083116102df57829003601f168201915b5050505050905082565b61030e610652565b73ffffffffffffffffffffffffffffffffffffffff1661032c610414565b73ffffffffffffffffffffffffffffffffffffffff1614610382576040517f08c379a000000000000000000000000000000000000000000000000000000000815260040161037990610caa565b60405180910390fd5b61038c60006106fb565b565b610396610652565b73ffffffffffffffffffffffffffffffffffffffff166103b4610414565b73ffffffffffffffffffffffffffffffffffffffff161461040a576040517f08c379a000000000000000000000000000000000000000000000000000000000815260040161040190610caa565b60405180910390fd5b6104126107c0565b565b60008060019054906101000a900473ffffffffffffffffffffffffffffffffffffffff16905090565b610445610224565b15610485576040517f08c379a000000000000000000000000000000000000000000000000000000000815260040161047c90610d77565b60405180910390fd5b60405180604001604052803373ffffffffffffffffffffffffffffffffffffffff16815260200182815250600160008473ffffffffffffffffffffffffffffffffffffffff1673ffffffffffffffffffffffffffffffffffffffff16815260200190815260200160002060008201518160000160006101000a81548173ffffffffffffffffffffffffffffffffffffffff021916908373ffffffffffffffffffffffffffffffffffffffff1602179055506020820151816001019080519060200190610552929190610862565b509050505050565b610562610652565b73ffffffffffffffffffffffffffffffffffffffff16610580610414565b73ffffffffffffffffffffffffffffffffffffffff16146105d6576040517f08c379a00000000000000000000000000000000000000000000000000000000081526004016105cd90610caa565b60405180910390fd5b600073ffffffffffffffffffffffffffffffffffffffff168173ffffffffffffffffffffffffffffffffffffffff161415610646576040517f08c379a000000000000000000000000000000000000000000000000000000000815260040161063d90610e09565b60405180910390fd5b61064f816106fb565b50565b600033905090565b610662610224565b6106a1576040517f08c379a000000000000000000000000000000000000000000000000000000000815260040161069890610e75565b60405180910390fd5b60008060006101000a81548160ff0219169083151502179055507f5db9ee0a495bf2e6ff9c91a7834c1ba4fdd244a5e8aa4e537bd38aeae4b073aa6106e4610652565b6040516106f19190610ab2565b60405180910390a1565b60008060019054906101000a900473ffffffffffffffffffffffffffffffffffffffff16905081600060016101000a81548173ffffffffffffffffffffffffffffffffffffffff021916908373ffffffffffffffffffffffffffffffffffffffff1602179055508173ffffffffffffffffffffffffffffffffffffffff168173ffffffffffffffffffffffffffffffffffffffff167f8be0079c531659141344cd1fd0a4f28419497f9722a3daafe3b4186f6b6457e060405160405180910390a35050565b6107c8610224565b15610808576040517f08c379a00000000000000000000000000000000000000000000000000000000081526004016107ff90610d77565b60405180910390fd5b60016000806101000a81548160ff0219169083151502179055507f62e78cea01bee320cd4e420270b5ea74000d11b0c9f74754ebdbfc544b05a25861084b610652565b6040516108589190610ab2565b60405180910390a1565b82805461086e90610cf9565b90600052602060002090601f01602090048101928261089057600085556108d7565b82601f106108a957805160ff19168380011785556108d7565b828001600101855582156108d7579182015b828111156108d65782518255916020019190600101906108bb565b5b5090506108e491906108e8565b5090565b5b808211156109015760008160009055506001016108e9565b5090565b60008115159050919050565b61091a81610905565b82525050565b60006020820190506109356000830184610911565b92915050565b6000604051905090565b600080fd5b600080fd5b600073ffffffffffffffffffffffffffffffffffffffff82169050919050565b600061097a8261094f565b9050919050565b61098a8161096f565b811461099557600080fd5b50565b6000813590506109a781610981565b92915050565b6000602082840312156109c3576109c2610945565b5b60006109d184828501610998565b91505092915050565b6109e38161096f565b82525050565b600081519050919050565b600082825260208201905092915050565b60005b83811015610a23578082015181840152602081019050610a08565b83811115610a32576000848401525b50505050565b6000601f19601f8301169050919050565b6000610a54826109e9565b610a5e81856109f4565b9350610a6e818560208601610a05565b610a7781610a38565b840191505092915050565b6000604082019050610a9760008301856109da565b8181036020830152610aa98184610a49565b90509392505050565b6000602082019050610ac760008301846109da565b92915050565b600080fd5b600080fd5b7f4e487b7100000000000000000000000000000000000000000000000000000000600052604160045260246000fd5b610b0f82610a38565b810181811067ffffffffffffffff82111715610b2e57610b2d610ad7565b5b80604052505050565b6000610b4161093b565b9050610b4d8282610b06565b919050565b600067ffffffffffffffff821115610b6d57610b6c610ad7565b5b610b7682610a38565b9050602081019050919050565b82818337600083830152505050565b6000610ba5610ba084610b52565b610b37565b905082815260208101848484011115610bc157610bc0610ad2565b5b610bcc848285610b83565b509392505050565b600082601f830112610be957610be8610acd565b5b8135610bf9848260208601610b92565b91505092915050565b60008060408385031215610c1957610c18610945565b5b6000610c2785828601610998565b925050602083013567ffffffffffffffff811115610c4857610c4761094a565b5b610c5485828601610bd4565b9150509250929050565b7f4f776e61626c653a2063616c6c6572206973206e6f7420746865206f776e6572600082015250565b6000610c946020836109f4565b9150610c9f82610c5e565b602082019050919050565b60006020820190508181036000830152610cc381610c87565b9050919050565b7f4e487b7100000000000000000000000000000000000000000000000000000000600052602260045260246000fd5b60006002820490506001821680610d1157607f821691505b60208210811415610d2557610d24610cca565b5b50919050565b7f5061757361626c653a2070617573656400000000000000000000000000000000600082015250565b6000610d616010836109f4565b9150610d6c82610d2b565b602082019050919050565b60006020820190508181036000830152610d9081610d54565b9050919050565b7f4f776e61626c653a206e6577206f776e657220697320746865207a65726f206160008201527f6464726573730000000000000000000000000000000000000000000000000000602082015250565b6000610df36026836109f4565b9150610dfe82610d97565b604082019050919050565b60006020820190508181036000830152610e2281610de6565b9050919050565b7f5061757361626c653a206e6f7420706175736564000000000000000000000000600082015250565b6000610e5f6014836109f4565b9150610e6a82610e29565b602082019050919050565b60006020820190508181036000830152610e8e81610e52565b905091905056fea26469706673582212202a5ca62240ed4032a97145f2fa5331b87423fe4ef585be2ac6b013ca0d8609ba64736f6c634300080a0033",
  "linkReferences": {},
  "deployedLinkReferences": {}
}