{
  "_format": "hh-sol-artifact-1",
  "contractName": "OnChainMessengerV1",
  "sourceName": "contracts/OnChainMessengerV1.sol",
  "abi": [
    {
      "inputs": [
        {
          "internalType": "address",
          "name": "",
          "type": "address"
        }
      ],
      "name": "messages",
      "outputs": [
        {
          "internalType": "address",
          "name": "sender",
          "type": "address"
        },
        {
          "internalType": "string",
          "name": "content",
          "type": "string"
        }
      ],
      "stateMutability": "view",
      "type": "function"
    },
    {
      "inputs": [
        {
          "internalType": "address",
          "name": "recipient",
          "type": "address"
        },
        {
          "internalType": "string",
          "name": "message",
          "type": "string"
        }
      ],
      "name": "sendMessage",
      "outputs": [],
      "stateMutability": "nonpayable",
      "type": "function"
    }
  ],
  "bytecode": "0x608060405234801561001057600080fd5b5061066b806100206000396000f3fe608060405234801561001057600080fd5b50600436106100365760003560e01c80635fdd59f81461003b578063de6f24bb1461006c575b600080fd5b6100556004803603810190610050919061033e565b610088565b604051610063929190610413565b60405180910390f35b61008660048036038101906100819190610578565b610154565b005b60016020528060005260406000206000915090508060000160009054906101000a900473ffffffffffffffffffffffffffffffffffffffff16908060010180546100d190610603565b80601f01602080910402602001604051908101604052809291908181526020018280546100fd90610603565b801561014a5780601f1061011f5761010080835404028352916020019161014a565b820191906000526020600020905b81548152906001019060200180831161012d57829003601f168201915b5050505050905082565b60405180604001604052803373ffffffffffffffffffffffffffffffffffffffff16815260200182815250600160008473ffffffffffffffffffffffffffffffffffffffff1673ffffffffffffffffffffffffffffffffffffffff16815260200190815260200160002060008201518160000160006101000a81548173ffffffffffffffffffffffffffffffffffffffff021916908373ffffffffffffffffffffffffffffffffffffffff1602179055506020820151816001019080519060200190610221929190610229565b509050505050565b82805461023590610603565b90600052602060002090601f016020900481019282610257576000855561029e565b82601f1061027057805160ff191683800117855561029e565b8280016001018555821561029e579182015b8281111561029d578251825591602001919060010190610282565b5b5090506102ab91906102af565b5090565b5b808211156102c85760008160009055506001016102b0565b5090565b6000604051905090565b600080fd5b600080fd5b600073ffffffffffffffffffffffffffffffffffffffff82169050919050565b600061030b826102e0565b9050919050565b61031b81610300565b811461032657600080fd5b50565b60008135905061033881610312565b92915050565b600060208284031215610354576103536102d6565b5b600061036284828501610329565b91505092915050565b61037481610300565b82525050565b600081519050919050565b600082825260208201905092915050565b60005b838110156103b4578082015181840152602081019050610399565b838111156103c3576000848401525b50505050565b6000601f19601f8301169050919050565b60006103e58261037a565b6103ef8185610385565b93506103ff818560208601610396565b610408816103c9565b840191505092915050565b6000604082019050610428600083018561036b565b818103602083015261043a81846103da565b90509392505050565b600080fd5b600080fd5b7f4e487b7100000000000000000000000000000000000000000000000000000000600052604160045260246000fd5b610485826103c9565b810181811067ffffffffffffffff821117156104a4576104a361044d565b5b80604052505050565b60006104b76102cc565b90506104c3828261047c565b919050565b600067ffffffffffffffff8211156104e3576104e261044d565b5b6104ec826103c9565b9050602081019050919050565b82818337600083830152505050565b600061051b610516846104c8565b6104ad565b90508281526020810184848401111561053757610536610448565b5b6105428482856104f9565b509392505050565b600082601f83011261055f5761055e610443565b5b813561056f848260208601610508565b91505092915050565b6000806040838503121561058f5761058e6102d6565b5b600061059d85828601610329565b925050602083013567ffffffffffffffff8111156105be576105bd6102db565b5b6105ca8582860161054a565b9150509250929050565b7f4e487b7100000000000000000000000000000000000000000000000000000000600052602260045260246000fd5b6000600282049050600182168061061b57607f821691505b6020821081141561062f5761062e6105d4565b5b5091905056fea264697066735822122064ccb087bb9ce2267d6ce6f329c242c66b988e56c54a9deaa28c81e47347742164736f6c634300080a0033",
  "linkReferences": {},
  "deployedLinkReferences": {}
}