{
  "_format": "hh-sol-artifact-1",
  "contractName": "OnChainMessengerV3",
  "sourceName": "contracts/OnChainMessengerV3.sol",
  "abi": [
    {
      "anonymous": false,
      "inputs": [
        {
          "indexed": false,
          "internalType": "address",
          "name": "sender",
          "type": "address"
        }
      ],
      "name": "Error",
      "type": "event"
    },
    {
      "anonymous": false,
      "inputs": [
        {
          "indexed": true,
          "internalType": "address",
          "name": "previousOwner",
          "type": "address"
        },
        {
          "indexed": true,
          "internalType": "address",
          "name": "newOwner",
          "type": "address"
        }
      ],
      "name": "OwnershipTransferred",
      "type": "event"
    },
    {
      "anonymous": false,
      "inputs": [
        {
          "indexed": false,
          "internalType": "address",
          "name": "account",
          "type": "address"
        }
      ],
      "name": "Paused",
      "type": "event"
    },
    {
      "anonymous": false,
      "inputs": [
        {
          "indexed": false,
          "internalType": "address",
          "name": "account",
          "type": "address"
        }
      ],
      "name": "Unpaused",
      "type": "event"
    },
    {
      "inputs": [
        {
          "internalType": "bool",
          "name": "_newBool",
          "type": "bool"
        }
      ],
      "name": "changeBool",
      "outputs": [],
      "stateMutability": "nonpayable",
      "type": "function"
    },
    {
      "inputs": [
        {
          "internalType": "address",
          "name": "",
          "type": "address"
        }
      ],
      "name": "messages",
      "outputs": [
        {
          "internalType": "address",
          "name": "sender",
          "type": "address"
        },
        {
          "internalType": "string",
          "name": "content",
          "type": "string"
        }
      ],
      "stateMutability": "view",
      "type": "function"
    },
    {
      "inputs": [],
      "name": "owner",
      "outputs": [
        {
          "internalType": "address",
          "name": "",
          "type": "address"
        }
      ],
      "stateMutability": "view",
      "type": "function"
    },
    {
      "inputs": [],
      "name": "pause",
      "outputs": [],
      "stateMutability": "nonpayable",
      "type": "function"
    },
    {
      "inputs": [],
      "name": "paused",
      "outputs": [
        {
          "internalType": "bool",
          "name": "",
          "type": "bool"
        }
      ],
      "stateMutability": "view",
      "type": "function"
    },
    {
      "inputs": [],
      "name": "renounceOwnership",
      "outputs": [],
      "stateMutability": "nonpayable",
      "type": "function"
    },
    {
      "inputs": [
        {
          "internalType": "address",
          "name": "recipient",
          "type": "address"
        },
        {
          "internalType": "string",
          "name": "message",
          "type": "string"
        }
      ],
      "name": "sendMessage",
      "outputs": [],
      "stateMutability": "nonpayable",
      "type": "function"
    },
    {
      "inputs": [],
      "name": "someBool",
      "outputs": [
        {
          "internalType": "bool",
          "name": "",
          "type": "bool"
        }
      ],
      "stateMutability": "view",
      "type": "function"
    },
    {
      "inputs": [],
      "name": "throwError",
      "outputs": [],
      "stateMutability": "nonpayable",
      "type": "function"
    },
    {
      "inputs": [
        {
          "internalType": "address",
          "name": "newOwner",
          "type": "address"
        }
      ],
      "name": "transferOwnership",
      "outputs": [],
      "stateMutability": "nonpayable",
      "type": "function"
    },
    {
      "inputs": [],
      "name": "unpause",
      "outputs": [],
      "stateMutability": "nonpayable",
      "type": "function"
    }
  ],
  "bytecode": "0x608060405234801561001057600080fd5b5060008060006101000a81548160ff02191690831515021790555061004761003c61004c60201b60201c565b61005460201b60201c565b610119565b600033905090565b60008060019054906101000a900473ffffffffffffffffffffffffffffffffffffffff16905081600060016101000a81548173ffffffffffffffffffffffffffffffffffffffff021916908373ffffffffffffffffffffffffffffffffffffffff1602179055508173ffffffffffffffffffffffffffffffffffffffff168173ffffffffffffffffffffffffffffffffffffffff167f8be0079c531659141344cd1fd0a4f28419497f9722a3daafe3b4186f6b6457e060405160405180910390a35050565b610fa4806101286000396000f3fe608060405234801561001057600080fd5b50600436106100a95760003560e01c8063715018a611610071578063715018a61461012d5780638456cb59146101375780638da5cb5b14610141578063c2779c861461015f578063de6f24bb1461017d578063f2fde38b14610199576100a9565b80632f7643a8146100ae5780633f4ba83a146100b85780635c975abb146100c25780635fdd59f8146100e05780636d68977914610111575b600080fd5b6100b66101b5565b005b6100c06101ee565b005b6100ca610274565b6040516100d791906109a0565b60405180910390f35b6100fa60048036038101906100f59190610a2d565b61028a565b604051610108929190610b02565b60405180910390f35b61012b60048036038101906101269190610b5e565b610356565b005b610135610373565b005b61013f6103fb565b005b610149610481565b6040516101569190610b8b565b60405180910390f35b6101676104aa565b60405161017491906109a0565b60405180910390f35b61019760048036038101906101929190610cdb565b6104bd565b005b6101b360048036038101906101ae9190610a2d565b6105da565b005b7f7ab3ca8d9c315e41f56f37c7e1fb65062a6c0c242c3c28ed0bf47db6be2b10ea336040516101e49190610b8b565b60405180910390a1565b6101f66106d2565b73ffffffffffffffffffffffffffffffffffffffff16610214610481565b73ffffffffffffffffffffffffffffffffffffffff161461026a576040517f08c379a000000000000000000000000000000000000000000000000000000000815260040161026190610d83565b60405180910390fd5b6102726106da565b565b60008060009054906101000a900460ff16905090565b60016020528060005260406000206000915090508060000160009054906101000a900473ffffffffffffffffffffffffffffffffffffffff16908060010180546102d390610dd2565b80601f01602080910402602001604051908101604052809291908181526020018280546102ff90610dd2565b801561034c5780601f106103215761010080835404028352916020019161034c565b820191906000526020600020905b81548152906001019060200180831161032f57829003601f168201915b5050505050905082565b80600260006101000a81548160ff02191690831515021790555050565b61037b6106d2565b73ffffffffffffffffffffffffffffffffffffffff16610399610481565b73ffffffffffffffffffffffffffffffffffffffff16146103ef576040517f08c379a00000000000000000000000000000000000000000000000000000000081526004016103e690610d83565b60405180910390fd5b6103f9600061077b565b565b6104036106d2565b73ffffffffffffffffffffffffffffffffffffffff16610421610481565b73ffffffffffffffffffffffffffffffffffffffff1614610477576040517f08c379a000000000000000000000000000000000000000000000000000000000815260040161046e90610d83565b60405180910390fd5b61047f610840565b565b60008060019054906101000a900473ffffffffffffffffffffffffffffffffffffffff16905090565b600260009054906101000a900460ff1681565b6104c5610274565b15610505576040517f08c379a00000000000000000000000000000000000000000000000000000000081526004016104fc90610e50565b60405180910390fd5b60405180604001604052803373ffffffffffffffffffffffffffffffffffffffff16815260200182815250600160008473ffffffffffffffffffffffffffffffffffffffff1673ffffffffffffffffffffffffffffffffffffffff16815260200190815260200160002060008201518160000160006101000a81548173ffffffffffffffffffffffffffffffffffffffff021916908373ffffffffffffffffffffffffffffffffffffffff16021790555060208201518160010190805190602001906105d29291906108e2565b509050505050565b6105e26106d2565b73ffffffffffffffffffffffffffffffffffffffff16610600610481565b73ffffffffffffffffffffffffffffffffffffffff1614610656576040517f08c379a000000000000000000000000000000000000000000000000000000000815260040161064d90610d83565b60405180910390fd5b600073ffffffffffffffffffffffffffffffffffffffff168173ffffffffffffffffffffffffffffffffffffffff1614156106c6576040517f08c379a00000000000000000000000000000000000000000000000000000000081526004016106bd90610ee2565b60405180910390fd5b6106cf8161077b565b50565b600033905090565b6106e2610274565b610721576040517f08c379a000000000000000000000000000000000000000000000000000000000815260040161071890610f4e565b60405180910390fd5b60008060006101000a81548160ff0219169083151502179055507f5db9ee0a495bf2e6ff9c91a7834c1ba4fdd244a5e8aa4e537bd38aeae4b073aa6107646106d2565b6040516107719190610b8b565b60405180910390a1565b60008060019054906101000a900473ffffffffffffffffffffffffffffffffffffffff16905081600060016101000a81548173ffffffffffffffffffffffffffffffffffffffff021916908373ffffffffffffffffffffffffffffffffffffffff1602179055508173ffffffffffffffffffffffffffffffffffffffff168173ffffffffffffffffffffffffffffffffffffffff167f8be0079c531659141344cd1fd0a4f28419497f9722a3daafe3b4186f6b6457e060405160405180910390a35050565b610848610274565b15610888576040517f08c379a000000000000000000000000000000000000000000000000000000000815260040161087f90610e50565b60405180910390fd5b60016000806101000a81548160ff0219169083151502179055507f62e78cea01bee320cd4e420270b5ea74000d11b0c9f74754ebdbfc544b05a2586108cb6106d2565b6040516108d89190610b8b565b60405180910390a1565b8280546108ee90610dd2565b90600052602060002090601f0160209004810192826109105760008555610957565b82601f1061092957805160ff1916838001178555610957565b82800160010185558215610957579182015b8281111561095657825182559160200191906001019061093b565b5b5090506109649190610968565b5090565b5b80821115610981576000816000905550600101610969565b5090565b60008115159050919050565b61099a81610985565b82525050565b60006020820190506109b56000830184610991565b92915050565b6000604051905090565b600080fd5b600080fd5b600073ffffffffffffffffffffffffffffffffffffffff82169050919050565b60006109fa826109cf565b9050919050565b610a0a816109ef565b8114610a1557600080fd5b50565b600081359050610a2781610a01565b92915050565b600060208284031215610a4357610a426109c5565b5b6000610a5184828501610a18565b91505092915050565b610a63816109ef565b82525050565b600081519050919050565b600082825260208201905092915050565b60005b83811015610aa3578082015181840152602081019050610a88565b83811115610ab2576000848401525b50505050565b6000601f19601f8301169050919050565b6000610ad482610a69565b610ade8185610a74565b9350610aee818560208601610a85565b610af781610ab8565b840191505092915050565b6000604082019050610b176000830185610a5a565b8181036020830152610b298184610ac9565b90509392505050565b610b3b81610985565b8114610b4657600080fd5b50565b600081359050610b5881610b32565b92915050565b600060208284031215610b7457610b736109c5565b5b6000610b8284828501610b49565b91505092915050565b6000602082019050610ba06000830184610a5a565b92915050565b600080fd5b600080fd5b7f4e487b7100000000000000000000000000000000000000000000000000000000600052604160045260246000fd5b610be882610ab8565b810181811067ffffffffffffffff82111715610c0757610c06610bb0565b5b80604052505050565b6000610c1a6109bb565b9050610c268282610bdf565b919050565b600067ffffffffffffffff821115610c4657610c45610bb0565b5b610c4f82610ab8565b9050602081019050919050565b82818337600083830152505050565b6000610c7e610c7984610c2b565b610c10565b905082815260208101848484011115610c9a57610c99610bab565b5b610ca5848285610c5c565b509392505050565b600082601f830112610cc257610cc1610ba6565b5b8135610cd2848260208601610c6b565b91505092915050565b60008060408385031215610cf257610cf16109c5565b5b6000610d0085828601610a18565b925050602083013567ffffffffffffffff811115610d2157610d206109ca565b5b610d2d85828601610cad565b9150509250929050565b7f4f776e61626c653a2063616c6c6572206973206e6f7420746865206f776e6572600082015250565b6000610d6d602083610a74565b9150610d7882610d37565b602082019050919050565b60006020820190508181036000830152610d9c81610d60565b9050919050565b7f4e487b7100000000000000000000000000000000000000000000000000000000600052602260045260246000fd5b60006002820490506001821680610dea57607f821691505b60208210811415610dfe57610dfd610da3565b5b50919050565b7f5061757361626c653a2070617573656400000000000000000000000000000000600082015250565b6000610e3a601083610a74565b9150610e4582610e04565b602082019050919050565b60006020820190508181036000830152610e6981610e2d565b9050919050565b7f4f776e61626c653a206e6577206f776e657220697320746865207a65726f206160008201527f6464726573730000000000000000000000000000000000000000000000000000602082015250565b6000610ecc602683610a74565b9150610ed782610e70565b604082019050919050565b60006020820190508181036000830152610efb81610ebf565b9050919050565b7f5061757361626c653a206e6f7420706175736564000000000000000000000000600082015250565b6000610f38601483610a74565b9150610f4382610f02565b602082019050919050565b60006020820190508181036000830152610f6781610f2b565b905091905056fea26469706673582212208e62590aaaf270baedbe4030c4aaa313a07eb3b146faa36d42e7b9f2f5c43b5a64736f6c634300080a0033",
  "linkReferences": {},
  "deployedLinkReferences": {}
}